{
  "_format": "hh-sol-artifact-1",
  "contractName": "ShowTime",
  "sourceName": "contracts/ShowTime.sol",
  "abi": [
    {
      "inputs": [
        {
          "internalType": "string",
          "name": "_name",
          "type": "string"
        },
        {
          "internalType": "string",
          "name": "_symbol",
          "type": "string"
        }
      ],
      "stateMutability": "nonpayable",
      "type": "constructor"
    },
    {
      "anonymous": false,
      "inputs": [
        {
          "indexed": true,
          "internalType": "address",
          "name": "owner",
          "type": "address"
        },
        {
          "indexed": true,
          "internalType": "address",
          "name": "approved",
          "type": "address"
        },
        {
          "indexed": true,
          "internalType": "uint256",
          "name": "tokenId",
          "type": "uint256"
        }
      ],
      "name": "Approval",
      "type": "event"
    },
    {
      "anonymous": false,
      "inputs": [
        {
          "indexed": true,
          "internalType": "address",
          "name": "owner",
          "type": "address"
        },
        {
          "indexed": true,
          "internalType": "address",
          "name": "operator",
          "type": "address"
        },
        {
          "indexed": false,
          "internalType": "bool",
          "name": "approved",
          "type": "bool"
        }
      ],
      "name": "ApprovalForAll",
      "type": "event"
    },
    {
      "anonymous": false,
      "inputs": [
        {
          "indexed": true,
          "internalType": "address",
          "name": "from",
          "type": "address"
        },
        {
          "indexed": true,
          "internalType": "address",
          "name": "to",
          "type": "address"
        },
        {
          "indexed": true,
          "internalType": "uint256",
          "name": "tokenId",
          "type": "uint256"
        }
      ],
      "name": "Transfer",
      "type": "event"
    },
    {
      "inputs": [
        {
          "internalType": "address",
          "name": "to",
          "type": "address"
        },
        {
          "internalType": "uint256",
          "name": "tokenId",
          "type": "uint256"
        }
      ],
      "name": "approve",
      "outputs": [],
      "stateMutability": "nonpayable",
      "type": "function"
    },
    {
      "inputs": [
        {
          "internalType": "address",
          "name": "owner",
          "type": "address"
        }
      ],
      "name": "balanceOf",
      "outputs": [
        {
          "internalType": "uint256",
          "name": "",
          "type": "uint256"
        }
      ],
      "stateMutability": "view",
      "type": "function"
    },
    {
      "inputs": [
        {
          "internalType": "uint256",
          "name": "tokenId",
          "type": "uint256"
        }
      ],
      "name": "getApproved",
      "outputs": [
        {
          "internalType": "address",
          "name": "",
          "type": "address"
        }
      ],
      "stateMutability": "view",
      "type": "function"
    },
    {
      "inputs": [
        {
          "internalType": "uint256",
          "name": "_id",
          "type": "uint256"
        }
      ],
      "name": "getOccasion",
      "outputs": [
        {
          "components": [
            {
              "internalType": "uint256",
              "name": "id",
              "type": "uint256"
            },
            {
              "internalType": "string",
              "name": "name",
              "type": "string"
            },
            {
              "internalType": "uint256",
              "name": "cost",
              "type": "uint256"
            },
            {
              "internalType": "uint256",
              "name": "tickets",
              "type": "uint256"
            },
            {
              "internalType": "uint256",
              "name": "maxTickets",
              "type": "uint256"
            },
            {
              "internalType": "string",
              "name": "date",
              "type": "string"
            },
            {
              "internalType": "string",
              "name": "time",
              "type": "string"
            },
            {
              "internalType": "string",
              "name": "location",
              "type": "string"
            },
            {
              "internalType": "bool",
              "name": "iseighteenplus",
              "type": "bool"
            }
          ],
          "internalType": "struct ShowTime.Occasion",
          "name": "",
          "type": "tuple"
        }
      ],
      "stateMutability": "view",
      "type": "function"
    },
    {
      "inputs": [
        {
          "internalType": "uint256",
          "name": "_id",
          "type": "uint256"
        }
      ],
      "name": "getSeatsTaken",
      "outputs": [
        {
          "internalType": "uint256[]",
          "name": "",
          "type": "uint256[]"
        }
      ],
      "stateMutability": "view",
      "type": "function"
    },
    {
      "inputs": [
        {
          "internalType": "uint256",
          "name": "",
          "type": "uint256"
        },
        {
          "internalType": "address",
          "name": "",
          "type": "address"
        }
      ],
      "name": "hasBought",
      "outputs": [
        {
          "internalType": "bool",
          "name": "",
          "type": "bool"
        }
      ],
      "stateMutability": "view",
      "type": "function"
    },
    {
      "inputs": [
        {
          "internalType": "address",
          "name": "owner",
          "type": "address"
        },
        {
          "internalType": "address",
          "name": "operator",
          "type": "address"
        }
      ],
      "name": "isApprovedForAll",
      "outputs": [
        {
          "internalType": "bool",
          "name": "",
          "type": "bool"
        }
      ],
      "stateMutability": "view",
      "type": "function"
    },
    {
      "inputs": [
        {
          "internalType": "string",
          "name": "_name",
          "type": "string"
        },
        {
          "internalType": "uint256",
          "name": "_cost",
          "type": "uint256"
        },
        {
          "internalType": "uint256",
          "name": "_maxTickets",
          "type": "uint256"
        },
        {
          "internalType": "string",
          "name": "_date",
          "type": "string"
        },
        {
          "internalType": "string",
          "name": "_time",
          "type": "string"
        },
        {
          "internalType": "string",
          "name": "_location",
          "type": "string"
        },
        {
          "internalType": "bool",
          "name": "_iseighteenplus",
          "type": "bool"
        }
      ],
      "name": "list",
      "outputs": [],
      "stateMutability": "nonpayable",
      "type": "function"
    },
    {
      "inputs": [
        {
          "internalType": "uint256",
          "name": "_id",
          "type": "uint256"
        },
        {
          "internalType": "uint256",
          "name": "_seat",
          "type": "uint256"
        }
      ],
      "name": "mint",
      "outputs": [],
      "stateMutability": "payable",
      "type": "function"
    },
    {
      "inputs": [],
      "name": "name",
      "outputs": [
        {
          "internalType": "string",
          "name": "",
          "type": "string"
        }
      ],
      "stateMutability": "view",
      "type": "function"
    },
    {
      "inputs": [],
      "name": "owner",
      "outputs": [
        {
          "internalType": "address",
          "name": "",
          "type": "address"
        }
      ],
      "stateMutability": "view",
      "type": "function"
    },
    {
      "inputs": [
        {
          "internalType": "uint256",
          "name": "tokenId",
          "type": "uint256"
        }
      ],
      "name": "ownerOf",
      "outputs": [
        {
          "internalType": "address",
          "name": "",
          "type": "address"
        }
      ],
      "stateMutability": "view",
      "type": "function"
    },
    {
      "inputs": [
        {
          "internalType": "address",
          "name": "from",
          "type": "address"
        },
        {
          "internalType": "address",
          "name": "to",
          "type": "address"
        },
        {
          "internalType": "uint256",
          "name": "tokenId",
          "type": "uint256"
        }
      ],
      "name": "safeTransferFrom",
      "outputs": [],
      "stateMutability": "nonpayable",
      "type": "function"
    },
    {
      "inputs": [
        {
          "internalType": "address",
          "name": "from",
          "type": "address"
        },
        {
          "internalType": "address",
          "name": "to",
          "type": "address"
        },
        {
          "internalType": "uint256",
          "name": "tokenId",
          "type": "uint256"
        },
        {
          "internalType": "bytes",
          "name": "data",
          "type": "bytes"
        }
      ],
      "name": "safeTransferFrom",
      "outputs": [],
      "stateMutability": "nonpayable",
      "type": "function"
    },
    {
      "inputs": [
        {
          "internalType": "uint256",
          "name": "",
          "type": "uint256"
        },
        {
          "internalType": "uint256",
          "name": "",
          "type": "uint256"
        }
      ],
      "name": "seatTaken",
      "outputs": [
        {
          "internalType": "address",
          "name": "",
          "type": "address"
        }
      ],
      "stateMutability": "view",
      "type": "function"
    },
    {
      "inputs": [
        {
          "internalType": "address",
          "name": "operator",
          "type": "address"
        },
        {
          "internalType": "bool",
          "name": "approved",
          "type": "bool"
        }
      ],
      "name": "setApprovalForAll",
      "outputs": [],
      "stateMutability": "nonpayable",
      "type": "function"
    },
    {
      "inputs": [
        {
          "internalType": "bytes4",
          "name": "interfaceId",
          "type": "bytes4"
        }
      ],
      "name": "supportsInterface",
      "outputs": [
        {
          "internalType": "bool",
          "name": "",
          "type": "bool"
        }
      ],
      "stateMutability": "view",
      "type": "function"
    },
    {
      "inputs": [],
      "name": "symbol",
      "outputs": [
        {
          "internalType": "string",
          "name": "",
          "type": "string"
        }
      ],
      "stateMutability": "view",
      "type": "function"
    },
    {
      "inputs": [
        {
          "internalType": "uint256",
          "name": "tokenId",
          "type": "uint256"
        }
      ],
      "name": "tokenURI",
      "outputs": [
        {
          "internalType": "string",
          "name": "",
          "type": "string"
        }
      ],
      "stateMutability": "view",
      "type": "function"
    },
    {
      "inputs": [],
      "name": "totalOccasions",
      "outputs": [
        {
          "internalType": "uint256",
          "name": "",
          "type": "uint256"
        }
      ],
      "stateMutability": "view",
      "type": "function"
    },
    {
      "inputs": [],
      "name": "totalSupply",
      "outputs": [
        {
          "internalType": "uint256",
          "name": "",
          "type": "uint256"
        }
      ],
      "stateMutability": "view",
      "type": "function"
    },
    {
      "inputs": [
        {
          "internalType": "address",
          "name": "from",
          "type": "address"
        },
        {
          "internalType": "address",
          "name": "to",
          "type": "address"
        },
        {
          "internalType": "uint256",
          "name": "tokenId",
          "type": "uint256"
        }
      ],
      "name": "transferFrom",
      "outputs": [],
      "stateMutability": "nonpayable",
      "type": "function"
    },
    {
      "inputs": [],
      "name": "withdraw",
      "outputs": [],
      "stateMutability": "nonpayable",
      "type": "function"
    }
  ],
  "bytecode": "0x60806040523480156200001157600080fd5b5060405162003e0f38038062003e0f83398181016040528101906200003791906200023b565b818181600090816200004a91906200050b565b5080600190816200005c91906200050b565b50505033600660006101000a81548173ffffffffffffffffffffffffffffffffffffffff021916908373ffffffffffffffffffffffffffffffffffffffff1602179055505050620005f2565b6000604051905090565b600080fd5b600080fd5b600080fd5b600080fd5b6000601f19601f8301169050919050565b7f4e487b7100000000000000000000000000000000000000000000000000000000600052604160045260246000fd5b6200011182620000c6565b810181811067ffffffffffffffff82111715620001335762000132620000d7565b5b80604052505050565b600062000148620000a8565b905062000156828262000106565b919050565b600067ffffffffffffffff821115620001795762000178620000d7565b5b6200018482620000c6565b9050602081019050919050565b60005b83811015620001b157808201518184015260208101905062000194565b60008484015250505050565b6000620001d4620001ce846200015b565b6200013c565b905082815260208101848484011115620001f357620001f2620000c1565b5b6200020084828562000191565b509392505050565b600082601f83011262000220576200021f620000bc565b5b815162000232848260208601620001bd565b91505092915050565b60008060408385031215620002555762000254620000b2565b5b600083015167ffffffffffffffff811115620002765762000275620000b7565b5b620002848582860162000208565b925050602083015167ffffffffffffffff811115620002a857620002a7620000b7565b5b620002b68582860162000208565b9150509250929050565b600081519050919050565b7f4e487b7100000000000000000000000000000000000000000000000000000000600052602260045260246000fd5b600060028204905060018216806200031357607f821691505b602082108103620003295762000328620002cb565b5b50919050565b60008190508160005260206000209050919050565b60006020601f8301049050919050565b600082821b905092915050565b600060088302620003937fffffffffffffffffffffffffffffffffffffffffffffffffffffffffffffffff8262000354565b6200039f868362000354565b95508019841693508086168417925050509392505050565b6000819050919050565b6000819050919050565b6000620003ec620003e6620003e084620003b7565b620003c1565b620003b7565b9050919050565b6000819050919050565b6200040883620003cb565b620004206200041782620003f3565b84845462000361565b825550505050565b600090565b6200043762000428565b62000444818484620003fd565b505050565b5b818110156200046c57620004606000826200042d565b6001810190506200044a565b5050565b601f821115620004bb5762000485816200032f565b620004908462000344565b81016020851015620004a0578190505b620004b8620004af8562000344565b83018262000449565b50505b505050565b600082821c905092915050565b6000620004e060001984600802620004c0565b1980831691505092915050565b6000620004fb8383620004cd565b9150826002028217905092915050565b6200051682620002c0565b67ffffffffffffffff811115620005325762000531620000d7565b5b6200053e8254620002fa565b6200054b82828562000470565b600060209050601f8311600181146200058357600084156200056e578287015190505b6200057a8582620004ed565b865550620005ea565b601f19841662000593866200032f565b60005b82811015620005bd5784890151825560018201915060208501945060208101905062000596565b86831015620005dd5784890151620005d9601f891682620004cd565b8355505b6001600288020188555050505b505050505050565b61380d80620006026000396000f3fe6080604052600436106101405760003560e01c80636352211e116100b65780639cb04aef1161006f5780639cb04aef14610461578063a22cb4651461049e578063af296da1146104c7578063b88d4fde14610504578063c87b56dd1461052d578063e985e9c51461056a57610140565b80636352211e1461032957806370a082311461036657806374bc8656146103a35780638da5cb5b146103e0578063953865c11461040b57806395d89b411461043657610140565b806318160ddd1161010857806318160ddd146102505780631b2ef1ca1461027b57806323b872dd146102975780633ccfd60b146102c057806342842e0e146102d7578063484498341461030057610140565b806301ffc9a71461014557806306fdde0314610182578063081812fc146101ad578063095ea7b3146101ea5780630ef7ec7414610213575b600080fd5b34801561015157600080fd5b5061016c60048036038101906101679190612332565b6105a7565b604051610179919061237a565b60405180910390f35b34801561018e57600080fd5b50610197610689565b6040516101a49190612425565b60405180910390f35b3480156101b957600080fd5b506101d460048036038101906101cf919061247d565b61071b565b6040516101e191906124eb565b60405180910390f35b3480156101f657600080fd5b50610211600480360381019061020c9190612532565b610761565b005b34801561021f57600080fd5b5061023a6004803603810190610235919061247d565b610878565b6040516102479190612630565b60405180910390f35b34801561025c57600080fd5b506102656108e3565b6040516102729190612661565b60405180910390f35b6102956004803603810190610290919061267c565b6108e9565b005b3480156102a357600080fd5b506102be60048036038101906102b991906126bc565b610b24565b005b3480156102cc57600080fd5b506102d5610b84565b005b3480156102e357600080fd5b506102fe60048036038101906102f991906126bc565b610c79565b005b34801561030c57600080fd5b5061032760048036038101906103229190612870565b610c99565b005b34801561033557600080fd5b50610350600480360381019061034b919061247d565b610e11565b60405161035d91906124eb565b60405180910390f35b34801561037257600080fd5b5061038d60048036038101906103889190612982565b610e97565b60405161039a9190612661565b60405180910390f35b3480156103af57600080fd5b506103ca60048036038101906103c5919061247d565b610f4e565b6040516103d79190612ae2565b60405180910390f35b3480156103ec57600080fd5b506103f5611207565b60405161040291906124eb565b60405180910390f35b34801561041757600080fd5b5061042061122d565b60405161042d9190612661565b60405180910390f35b34801561044257600080fd5b5061044b611233565b6040516104589190612425565b60405180910390f35b34801561046d57600080fd5b5061048860048036038101906104839190612b04565b6112c5565b604051610495919061237a565b60405180910390f35b3480156104aa57600080fd5b506104c560048036038101906104c09190612b44565b6112f4565b005b3480156104d357600080fd5b506104ee60048036038101906104e9919061267c565b61130a565b6040516104fb91906124eb565b60405180910390f35b34801561051057600080fd5b5061052b60048036038101906105269190612c25565b61134c565b005b34801561053957600080fd5b50610554600480360381019061054f919061247d565b6113ae565b6040516105619190612425565b60405180910390f35b34801561057657600080fd5b50610591600480360381019061058c9190612ca8565b611416565b60405161059e919061237a565b60405180910390f35b60007f80ac58cd000000000000000000000000000000000000000000000000000000007bffffffffffffffffffffffffffffffffffffffffffffffffffffffff1916827bffffffffffffffffffffffffffffffffffffffffffffffffffffffff1916148061067257507f5b5e139f000000000000000000000000000000000000000000000000000000007bffffffffffffffffffffffffffffffffffffffffffffffffffffffff1916827bffffffffffffffffffffffffffffffffffffffffffffffffffffffff1916145b806106825750610681826114aa565b5b9050919050565b60606000805461069890612d17565b80601f01602080910402602001604051908101604052809291908181526020018280546106c490612d17565b80156107115780601f106106e657610100808354040283529160200191610711565b820191906000526020600020905b8154815290600101906020018083116106f457829003601f168201915b5050505050905090565b600061072682611514565b6004600083815260200190815260200160002060009054906101000a900473ffffffffffffffffffffffffffffffffffffffff169050919050565b600061076c82610e11565b90508073ffffffffffffffffffffffffffffffffffffffff168373ffffffffffffffffffffffffffffffffffffffff16036107dc576040517f08c379a00000000000000000000000000000000000000000000000000000000081526004016107d390612dba565b60405180910390fd5b8073ffffffffffffffffffffffffffffffffffffffff166107fb61155f565b73ffffffffffffffffffffffffffffffffffffffff16148061082a57506108298161082461155f565b611416565b5b610869576040517f08c379a000000000000000000000000000000000000000000000000000000000815260040161086090612e4c565b60405180910390fd5b6108738383611567565b505050565b6060600c60008381526020019081526020016000208054806020026020016040519081016040528092919081815260200182805480156108d757602002820191906000526020600020905b8154815260200190600101908083116108c3575b50505050509050919050565b60085481565b600082036108f657600080fd5b60075482111561090557600080fd5b600960008381526020019081526020016000206002015434101561092857600080fd5b600073ffffffffffffffffffffffffffffffffffffffff16600b6000848152602001908152602001600020600083815260200190815260200160002060009054906101000a900473ffffffffffffffffffffffffffffffffffffffff1673ffffffffffffffffffffffffffffffffffffffff16146109a557600080fd5b60096000838152602001908152602001600020600401548111156109c857600080fd5b60016009600084815260200190815260200160002060030160008282546109ef9190612e9b565b925050819055506001600a600084815260200190815260200160002060003373ffffffffffffffffffffffffffffffffffffffff1673ffffffffffffffffffffffffffffffffffffffff16815260200190815260200160002060006101000a81548160ff02191690831515021790555033600b6000848152602001908152602001600020600083815260200190815260200160002060006101000a81548173ffffffffffffffffffffffffffffffffffffffff021916908373ffffffffffffffffffffffffffffffffffffffff160217905550600c600083815260200190815260200160002081908060018154018082558091505060019003906000526020600020016000909190919091505560086000815480929190610b0f90612ecf565b9190505550610b2033600854611620565b5050565b610b35610b2f61155f565b8261163e565b610b74576040517f08c379a0000000000000000000000000000000000000000000000000000000008152600401610b6b90612f89565b60405180910390fd5b610b7f8383836116d3565b505050565b600660009054906101000a900473ffffffffffffffffffffffffffffffffffffffff1673ffffffffffffffffffffffffffffffffffffffff163373ffffffffffffffffffffffffffffffffffffffff1614610bde57600080fd5b6000600660009054906101000a900473ffffffffffffffffffffffffffffffffffffffff1673ffffffffffffffffffffffffffffffffffffffff1647604051610c2690612fda565b60006040518083038185875af1925050503d8060008114610c63576040519150601f19603f3d011682016040523d82523d6000602084013e610c68565b606091505b5050905080610c7657600080fd5b50565b610c948383836040518060200160405280600081525061134c565b505050565b600660009054906101000a900473ffffffffffffffffffffffffffffffffffffffff1673ffffffffffffffffffffffffffffffffffffffff163373ffffffffffffffffffffffffffffffffffffffff1614610cf357600080fd5b60076000815480929190610d0690612ecf565b91905055506040518061012001604052806007548152602001888152602001878152602001868152602001868152602001858152602001848152602001838152602001821515815250600960006007548152602001908152602001600020600082015181600001556020820151816001019081610d83919061319b565b5060408201518160020155606082015181600301556080820151816004015560a0820151816005019081610db7919061319b565b5060c0820151816006019081610dcd919061319b565b5060e0820151816007019081610de3919061319b565b506101008201518160080160006101000a81548160ff02191690831515021790555090505050505050505050565b600080610e1d836119cc565b9050600073ffffffffffffffffffffffffffffffffffffffff168173ffffffffffffffffffffffffffffffffffffffff1603610e8e576040517f08c379a0000000000000000000000000000000000000000000000000000000008152600401610e85906132b9565b60405180910390fd5b80915050919050565b60008073ffffffffffffffffffffffffffffffffffffffff168273ffffffffffffffffffffffffffffffffffffffff1603610f07576040517f08c379a0000000000000000000000000000000000000000000000000000000008152600401610efe9061334b565b60405180910390fd5b600360008373ffffffffffffffffffffffffffffffffffffffff1673ffffffffffffffffffffffffffffffffffffffff168152602001908152602001600020549050919050565b610f56612278565b600960008381526020019081526020016000206040518061012001604052908160008201548152602001600182018054610f8f90612d17565b80601f0160208091040260200160405190810160405280929190818152602001828054610fbb90612d17565b80156110085780601f10610fdd57610100808354040283529160200191611008565b820191906000526020600020905b815481529060010190602001808311610feb57829003601f168201915b5050505050815260200160028201548152602001600382015481526020016004820154815260200160058201805461103f90612d17565b80601f016020809104026020016040519081016040528092919081815260200182805461106b90612d17565b80156110b85780601f1061108d576101008083540402835291602001916110b8565b820191906000526020600020905b81548152906001019060200180831161109b57829003601f168201915b505050505081526020016006820180546110d190612d17565b80601f01602080910402602001604051908101604052809291908181526020018280546110fd90612d17565b801561114a5780601f1061111f5761010080835404028352916020019161114a565b820191906000526020600020905b81548152906001019060200180831161112d57829003601f168201915b5050505050815260200160078201805461116390612d17565b80601f016020809104026020016040519081016040528092919081815260200182805461118f90612d17565b80156111dc5780601f106111b1576101008083540402835291602001916111dc565b820191906000526020600020905b8154815290600101906020018083116111bf57829003601f168201915b505050505081526020016008820160009054906101000a900460ff1615151515815250509050919050565b600660009054906101000a900473ffffffffffffffffffffffffffffffffffffffff1681565b60075481565b60606001805461124290612d17565b80601f016020809104026020016040519081016040528092919081815260200182805461126e90612d17565b80156112bb5780601f10611290576101008083540402835291602001916112bb565b820191906000526020600020905b81548152906001019060200180831161129e57829003601f168201915b5050505050905090565b600a6020528160005260406000206020528060005260406000206000915091509054906101000a900460ff1681565b6113066112ff61155f565b8383611a09565b5050565b600b6020528160005260406000206020528060005260406000206000915091509054906101000a900473ffffffffffffffffffffffffffffffffffffffff1681565b61135d61135761155f565b8361163e565b61139c576040517f08c379a000000000000000000000000000000000000000000000000000000000815260040161139390612f89565b60405180910390fd5b6113a884848484611b75565b50505050565b60606113b982611514565b60006113c3611bd1565b905060008151116113e3576040518060200160405280600081525061140e565b806113ed84611be8565b6040516020016113fe9291906133a7565b6040516020818303038152906040525b915050919050565b6000600560008473ffffffffffffffffffffffffffffffffffffffff1673ffffffffffffffffffffffffffffffffffffffff16815260200190815260200160002060008373ffffffffffffffffffffffffffffffffffffffff1673ffffffffffffffffffffffffffffffffffffffff16815260200190815260200160002060009054906101000a900460ff16905092915050565b60007f01ffc9a7000000000000000000000000000000000000000000000000000000007bffffffffffffffffffffffffffffffffffffffffffffffffffffffff1916827bffffffffffffffffffffffffffffffffffffffffffffffffffffffff1916149050919050565b61151d81611cb6565b61155c576040517f08c379a0000000000000000000000000000000000000000000000000000000008152600401611553906132b9565b60405180910390fd5b50565b600033905090565b816004600083815260200190815260200160002060006101000a81548173ffffffffffffffffffffffffffffffffffffffff021916908373ffffffffffffffffffffffffffffffffffffffff160217905550808273ffffffffffffffffffffffffffffffffffffffff166115da83610e11565b73ffffffffffffffffffffffffffffffffffffffff167f8c5be1e5ebec7d5bd14f71427d1e84f3dd0314c0f7b2291e5b200ac8c7c3b92560405160405180910390a45050565b61163a828260405180602001604052806000815250611cf7565b5050565b60008061164a83610e11565b90508073ffffffffffffffffffffffffffffffffffffffff168473ffffffffffffffffffffffffffffffffffffffff16148061168c575061168b8185611416565b5b806116ca57508373ffffffffffffffffffffffffffffffffffffffff166116b28461071b565b73ffffffffffffffffffffffffffffffffffffffff16145b91505092915050565b8273ffffffffffffffffffffffffffffffffffffffff166116f382610e11565b73ffffffffffffffffffffffffffffffffffffffff1614611749576040517f08c379a00000000000000000000000000000000000000000000000000000000081526004016117409061343d565b60405180910390fd5b600073ffffffffffffffffffffffffffffffffffffffff168273ffffffffffffffffffffffffffffffffffffffff16036117b8576040517f08c379a00000000000000000000000000000000000000000000000000000000081526004016117af906134cf565b60405180910390fd5b6117c58383836001611d52565b8273ffffffffffffffffffffffffffffffffffffffff166117e582610e11565b73ffffffffffffffffffffffffffffffffffffffff161461183b576040517f08c379a00000000000000000000000000000000000000000000000000000000081526004016118329061343d565b60405180910390fd5b6004600082815260200190815260200160002060006101000a81549073ffffffffffffffffffffffffffffffffffffffff02191690556001600360008573ffffffffffffffffffffffffffffffffffffffff1673ffffffffffffffffffffffffffffffffffffffff168152602001908152602001600020600082825403925050819055506001600360008473ffffffffffffffffffffffffffffffffffffffff1673ffffffffffffffffffffffffffffffffffffffff16815260200190815260200160002060008282540192505081905550816002600083815260200190815260200160002060006101000a81548173ffffffffffffffffffffffffffffffffffffffff021916908373ffffffffffffffffffffffffffffffffffffffff160217905550808273ffffffffffffffffffffffffffffffffffffffff168473ffffffffffffffffffffffffffffffffffffffff167fddf252ad1be2c89b69c2b068fc378daa952ba7f163c4a11628f55a4df523b3ef60405160405180910390a46119c78383836001611d58565b505050565b60006002600083815260200190815260200160002060009054906101000a900473ffffffffffffffffffffffffffffffffffffffff169050919050565b8173ffffffffffffffffffffffffffffffffffffffff168373ffffffffffffffffffffffffffffffffffffffff1603611a77576040517f08c379a0000000000000000000000000000000000000000000000000000000008152600401611a6e9061353b565b60405180910390fd5b80600560008573ffffffffffffffffffffffffffffffffffffffff1673ffffffffffffffffffffffffffffffffffffffff16815260200190815260200160002060008473ffffffffffffffffffffffffffffffffffffffff1673ffffffffffffffffffffffffffffffffffffffff16815260200190815260200160002060006101000a81548160ff0219169083151502179055508173ffffffffffffffffffffffffffffffffffffffff168373ffffffffffffffffffffffffffffffffffffffff167f17307eab39ab6107e8899845ad3d59bd9653f200f220920489ca2b5937696c3183604051611b68919061237a565b60405180910390a3505050565b611b808484846116d3565b611b8c84848484611d5e565b611bcb576040517f08c379a0000000000000000000000000000000000000000000000000000000008152600401611bc2906135cd565b60405180910390fd5b50505050565b606060405180602001604052806000815250905090565b606060006001611bf784611ee5565b01905060008167ffffffffffffffff811115611c1657611c15612719565b5b6040519080825280601f01601f191660200182016040528015611c485781602001600182028036833780820191505090505b509050600082602001820190505b600115611cab578080600190039150507f3031323334353637383961626364656600000000000000000000000000000000600a86061a8153600a8581611c9f57611c9e6135ed565b5b04945060008503611c56575b819350505050919050565b60008073ffffffffffffffffffffffffffffffffffffffff16611cd8836119cc565b73ffffffffffffffffffffffffffffffffffffffff1614159050919050565b611d018383612038565b611d0e6000848484611d5e565b611d4d576040517f08c379a0000000000000000000000000000000000000000000000000000000008152600401611d44906135cd565b60405180910390fd5b505050565b50505050565b50505050565b6000611d7f8473ffffffffffffffffffffffffffffffffffffffff16612255565b15611ed8578373ffffffffffffffffffffffffffffffffffffffff1663150b7a02611da861155f565b8786866040518563ffffffff1660e01b8152600401611dca9493929190613671565b6020604051808303816000875af1925050508015611e0657506040513d601f19601f82011682018060405250810190611e0391906136d2565b60015b611e88573d8060008114611e36576040519150601f19603f3d011682016040523d82523d6000602084013e611e3b565b606091505b506000815103611e80576040517f08c379a0000000000000000000000000000000000000000000000000000000008152600401611e77906135cd565b60405180910390fd5b805181602001fd5b63150b7a0260e01b7bffffffffffffffffffffffffffffffffffffffffffffffffffffffff1916817bffffffffffffffffffffffffffffffffffffffffffffffffffffffff191614915050611edd565b600190505b949350505050565b600080600090507a184f03e93ff9f4daa797ed6e38ed64bf6a1f0100000000000000008310611f43577a184f03e93ff9f4daa797ed6e38ed64bf6a1f0100000000000000008381611f3957611f386135ed565b5b0492506040810190505b6d04ee2d6d415b85acef81000000008310611f80576d04ee2d6d415b85acef81000000008381611f7657611f756135ed565b5b0492506020810190505b662386f26fc100008310611faf57662386f26fc100008381611fa557611fa46135ed565b5b0492506010810190505b6305f5e1008310611fd8576305f5e1008381611fce57611fcd6135ed565b5b0492506008810190505b6127108310611ffd576127108381611ff357611ff26135ed565b5b0492506004810190505b606483106120205760648381612016576120156135ed565b5b0492506002810190505b600a831061202f576001810190505b80915050919050565b600073ffffffffffffffffffffffffffffffffffffffff168273ffffffffffffffffffffffffffffffffffffffff16036120a7576040517f08c379a000000000000000000000000000000000000000000000000000000000815260040161209e9061374b565b60405180910390fd5b6120b081611cb6565b156120f0576040517f08c379a00000000000000000000000000000000000000000000000000000000081526004016120e7906137b7565b60405180910390fd5b6120fe600083836001611d52565b61210781611cb6565b15612147576040517f08c379a000000000000000000000000000000000000000000000000000000000815260040161213e906137b7565b60405180910390fd5b6001600360008473ffffffffffffffffffffffffffffffffffffffff1673ffffffffffffffffffffffffffffffffffffffff16815260200190815260200160002060008282540192505081905550816002600083815260200190815260200160002060006101000a81548173ffffffffffffffffffffffffffffffffffffffff021916908373ffffffffffffffffffffffffffffffffffffffff160217905550808273ffffffffffffffffffffffffffffffffffffffff16600073ffffffffffffffffffffffffffffffffffffffff167fddf252ad1be2c89b69c2b068fc378daa952ba7f163c4a11628f55a4df523b3ef60405160405180910390a4612251600083836001611d58565b5050565b6000808273ffffffffffffffffffffffffffffffffffffffff163b119050919050565b60405180610120016040528060008152602001606081526020016000815260200160008152602001600081526020016060815260200160608152602001606081526020016000151581525090565b6000604051905090565b600080fd5b600080fd5b60007fffffffff0000000000000000000000000000000000000000000000000000000082169050919050565b61230f816122da565b811461231a57600080fd5b50565b60008135905061232c81612306565b92915050565b600060208284031215612348576123476122d0565b5b60006123568482850161231d565b91505092915050565b60008115159050919050565b6123748161235f565b82525050565b600060208201905061238f600083018461236b565b92915050565b600081519050919050565b600082825260208201905092915050565b60005b838110156123cf5780820151818401526020810190506123b4565b60008484015250505050565b6000601f19601f8301169050919050565b60006123f782612395565b61240181856123a0565b93506124118185602086016123b1565b61241a816123db565b840191505092915050565b6000602082019050818103600083015261243f81846123ec565b905092915050565b6000819050919050565b61245a81612447565b811461246557600080fd5b50565b60008135905061247781612451565b92915050565b600060208284031215612493576124926122d0565b5b60006124a184828501612468565b91505092915050565b600073ffffffffffffffffffffffffffffffffffffffff82169050919050565b60006124d5826124aa565b9050919050565b6124e5816124ca565b82525050565b600060208201905061250060008301846124dc565b92915050565b61250f816124ca565b811461251a57600080fd5b50565b60008135905061252c81612506565b92915050565b60008060408385031215612549576125486122d0565b5b60006125578582860161251d565b925050602061256885828601612468565b9150509250929050565b600081519050919050565b600082825260208201905092915050565b6000819050602082019050919050565b6125a781612447565b82525050565b60006125b9838361259e565b60208301905092915050565b6000602082019050919050565b60006125dd82612572565b6125e7818561257d565b93506125f28361258e565b8060005b8381101561262357815161260a88826125ad565b9750612615836125c5565b9250506001810190506125f6565b5085935050505092915050565b6000602082019050818103600083015261264a81846125d2565b905092915050565b61265b81612447565b82525050565b60006020820190506126766000830184612652565b92915050565b60008060408385031215612693576126926122d0565b5b60006126a185828601612468565b92505060206126b285828601612468565b9150509250929050565b6000806000606084860312156126d5576126d46122d0565b5b60006126e38682870161251d565b93505060206126f48682870161251d565b925050604061270586828701612468565b9150509250925092565b600080fd5b600080fd5b7f4e487b7100000000000000000000000000000000000000000000000000000000600052604160045260246000fd5b612751826123db565b810181811067ffffffffffffffff821117156127705761276f612719565b5b80604052505050565b60006127836122c6565b905061278f8282612748565b919050565b600067ffffffffffffffff8211156127af576127ae612719565b5b6127b8826123db565b9050602081019050919050565b82818337600083830152505050565b60006127e76127e284612794565b612779565b90508281526020810184848401111561280357612802612714565b5b61280e8482856127c5565b509392505050565b600082601f83011261282b5761282a61270f565b5b813561283b8482602086016127d4565b91505092915050565b61284d8161235f565b811461285857600080fd5b50565b60008135905061286a81612844565b92915050565b600080600080600080600060e0888a03121561288f5761288e6122d0565b5b600088013567ffffffffffffffff8111156128ad576128ac6122d5565b5b6128b98a828b01612816565b97505060206128ca8a828b01612468565b96505060406128db8a828b01612468565b955050606088013567ffffffffffffffff8111156128fc576128fb6122d5565b5b6129088a828b01612816565b945050608088013567ffffffffffffffff811115612929576129286122d5565b5b6129358a828b01612816565b93505060a088013567ffffffffffffffff811115612956576129556122d5565b5b6129628a828b01612816565b92505060c06129738a828b0161285b565b91505092959891949750929550565b600060208284031215612998576129976122d0565b5b60006129a68482850161251d565b91505092915050565b600082825260208201905092915050565b60006129cb82612395565b6129d581856129af565b93506129e58185602086016123b1565b6129ee816123db565b840191505092915050565b612a028161235f565b82525050565b600061012083016000830151612a21600086018261259e565b5060208301518482036020860152612a3982826129c0565b9150506040830151612a4e604086018261259e565b506060830151612a61606086018261259e565b506080830151612a74608086018261259e565b5060a083015184820360a0860152612a8c82826129c0565b91505060c083015184820360c0860152612aa682826129c0565b91505060e083015184820360e0860152612ac082826129c0565b915050610100830151612ad76101008601826129f9565b508091505092915050565b60006020820190508181036000830152612afc8184612a08565b905092915050565b60008060408385031215612b1b57612b1a6122d0565b5b6000612b2985828601612468565b9250506020612b3a8582860161251d565b9150509250929050565b60008060408385031215612b5b57612b5a6122d0565b5b6000612b698582860161251d565b9250506020612b7a8582860161285b565b9150509250929050565b600067ffffffffffffffff821115612b9f57612b9e612719565b5b612ba8826123db565b9050602081019050919050565b6000612bc8612bc384612b84565b612779565b905082815260208101848484011115612be457612be3612714565b5b612bef8482856127c5565b509392505050565b600082601f830112612c0c57612c0b61270f565b5b8135612c1c848260208601612bb5565b91505092915050565b60008060008060808587031215612c3f57612c3e6122d0565b5b6000612c4d8782880161251d565b9450506020612c5e8782880161251d565b9350506040612c6f87828801612468565b925050606085013567ffffffffffffffff811115612c9057612c8f6122d5565b5b612c9c87828801612bf7565b91505092959194509250565b60008060408385031215612cbf57612cbe6122d0565b5b6000612ccd8582860161251d565b9250506020612cde8582860161251d565b9150509250929050565b7f4e487b7100000000000000000000000000000000000000000000000000000000600052602260045260246000fd5b60006002820490506001821680612d2f57607f821691505b602082108103612d4257612d41612ce8565b5b50919050565b7f4552433732313a20617070726f76616c20746f2063757272656e74206f776e6560008201527f7200000000000000000000000000000000000000000000000000000000000000602082015250565b6000612da46021836123a0565b9150612daf82612d48565b604082019050919050565b60006020820190508181036000830152612dd381612d97565b9050919050565b7f4552433732313a20617070726f76652063616c6c6572206973206e6f7420746f60008201527f6b656e206f776e6572206f7220617070726f76656420666f7220616c6c000000602082015250565b6000612e36603d836123a0565b9150612e4182612dda565b604082019050919050565b60006020820190508181036000830152612e6581612e29565b9050919050565b7f4e487b7100000000000000000000000000000000000000000000000000000000600052601160045260246000fd5b6000612ea682612447565b9150612eb183612447565b9250828203905081811115612ec957612ec8612e6c565b5b92915050565b6000612eda82612447565b91507fffffffffffffffffffffffffffffffffffffffffffffffffffffffffffffffff8203612f0c57612f0b612e6c565b5b600182019050919050565b7f4552433732313a2063616c6c6572206973206e6f7420746f6b656e206f776e6560008201527f72206f7220617070726f76656400000000000000000000000000000000000000602082015250565b6000612f73602d836123a0565b9150612f7e82612f17565b604082019050919050565b60006020820190508181036000830152612fa281612f66565b9050919050565b600081905092915050565b50565b6000612fc4600083612fa9565b9150612fcf82612fb4565b600082019050919050565b6000612fe582612fb7565b9150819050919050565b60008190508160005260206000209050919050565b60006020601f8301049050919050565b600082821b905092915050565b6000600883026130517fffffffffffffffffffffffffffffffffffffffffffffffffffffffffffffffff82613014565b61305b8683613014565b95508019841693508086168417925050509392505050565b6000819050919050565b600061309861309361308e84612447565b613073565b612447565b9050919050565b6000819050919050565b6130b28361307d565b6130c66130be8261309f565b848454613021565b825550505050565b600090565b6130db6130ce565b6130e68184846130a9565b505050565b5b8181101561310a576130ff6000826130d3565b6001810190506130ec565b5050565b601f82111561314f5761312081612fef565b61312984613004565b81016020851015613138578190505b61314c61314485613004565b8301826130eb565b50505b505050565b600082821c905092915050565b600061317260001984600802613154565b1980831691505092915050565b600061318b8383613161565b9150826002028217905092915050565b6131a482612395565b67ffffffffffffffff8111156131bd576131bc612719565b5b6131c78254612d17565b6131d282828561310e565b600060209050601f83116001811461320557600084156131f3578287015190505b6131fd858261317f565b865550613265565b601f19841661321386612fef565b60005b8281101561323b57848901518255600182019150602085019450602081019050613216565b868310156132585784890151613254601f891682613161565b8355505b6001600288020188555050505b505050505050565b7f4552433732313a20696e76616c696420746f6b656e2049440000000000000000600082015250565b60006132a36018836123a0565b91506132ae8261326d565b602082019050919050565b600060208201905081810360008301526132d281613296565b9050919050565b7f4552433732313a2061646472657373207a65726f206973206e6f74206120766160008201527f6c6964206f776e65720000000000000000000000000000000000000000000000602082015250565b60006133356029836123a0565b9150613340826132d9565b604082019050919050565b6000602082019050818103600083015261336481613328565b9050919050565b600081905092915050565b600061338182612395565b61338b818561336b565b935061339b8185602086016123b1565b80840191505092915050565b60006133b38285613376565b91506133bf8284613376565b91508190509392505050565b7f4552433732313a207472616e736665722066726f6d20696e636f72726563742060008201527f6f776e6572000000000000000000000000000000000000000000000000000000602082015250565b60006134276025836123a0565b9150613432826133cb565b604082019050919050565b600060208201905081810360008301526134568161341a565b9050919050565b7f4552433732313a207472616e7366657220746f20746865207a65726f2061646460008201527f7265737300000000000000000000000000000000000000000000000000000000602082015250565b60006134b96024836123a0565b91506134c48261345d565b604082019050919050565b600060208201905081810360008301526134e8816134ac565b9050919050565b7f4552433732313a20617070726f766520746f2063616c6c657200000000000000600082015250565b60006135256019836123a0565b9150613530826134ef565b602082019050919050565b6000602082019050818103600083015261355481613518565b9050919050565b7f4552433732313a207472616e7366657220746f206e6f6e20455243373231526560008201527f63656976657220696d706c656d656e7465720000000000000000000000000000602082015250565b60006135b76032836123a0565b91506135c28261355b565b604082019050919050565b600060208201905081810360008301526135e6816135aa565b9050919050565b7f4e487b7100000000000000000000000000000000000000000000000000000000600052601260045260246000fd5b600081519050919050565b600082825260208201905092915050565b60006136438261361c565b61364d8185613627565b935061365d8185602086016123b1565b613666816123db565b840191505092915050565b600060808201905061368660008301876124dc565b61369360208301866124dc565b6136a06040830185612652565b81810360608301526136b28184613638565b905095945050505050565b6000815190506136cc81612306565b92915050565b6000602082840312156136e8576136e76122d0565b5b60006136f6848285016136bd565b91505092915050565b7f4552433732313a206d696e7420746f20746865207a65726f2061646472657373600082015250565b60006137356020836123a0565b9150613740826136ff565b602082019050919050565b6000602082019050818103600083015261376481613728565b9050919050565b7f4552433732313a20746f6b656e20616c7265616479206d696e74656400000000600082015250565b60006137a1601c836123a0565b91506137ac8261376b565b602082019050919050565b600060208201905081810360008301526137d081613794565b905091905056fea264697066735822122049e58751f55e571a985d619aa8d5fca07041cfd7a5350d24cbaa094ae6de9a3b64736f6c63430008130033",
  "linkReferences": {},
  "deployedLinkReferences": {}
}