{
  "_format": "hh-sol-artifact-1",
  "contractName": "ShowTime",
  "sourceName": "contracts/ShowTime.sol",
  "abi": [
    {
      "inputs": [
        {
          "internalType": "string",
          "name": "_name",
          "type": "string"
        },
        {
          "internalType": "string",
          "name": "_symbol",
          "type": "string"
        }
      ],
      "stateMutability": "nonpayable",
      "type": "constructor"
    },
    {
      "anonymous": false,
      "inputs": [
        {
          "indexed": true,
          "internalType": "address",
          "name": "owner",
          "type": "address"
        },
        {
          "indexed": true,
          "internalType": "address",
          "name": "approved",
          "type": "address"
        },
        {
          "indexed": true,
          "internalType": "uint256",
          "name": "tokenId",
          "type": "uint256"
        }
      ],
      "name": "Approval",
      "type": "event"
    },
    {
      "anonymous": false,
      "inputs": [
        {
          "indexed": true,
          "internalType": "address",
          "name": "owner",
          "type": "address"
        },
        {
          "indexed": true,
          "internalType": "address",
          "name": "operator",
          "type": "address"
        },
        {
          "indexed": false,
          "internalType": "bool",
          "name": "approved",
          "type": "bool"
        }
      ],
      "name": "ApprovalForAll",
      "type": "event"
    },
    {
      "anonymous": false,
      "inputs": [
        {
          "indexed": true,
          "internalType": "address",
          "name": "from",
          "type": "address"
        },
        {
          "indexed": true,
          "internalType": "address",
          "name": "to",
          "type": "address"
        },
        {
          "indexed": true,
          "internalType": "uint256",
          "name": "tokenId",
          "type": "uint256"
        }
      ],
      "name": "Transfer",
      "type": "event"
    },
    {
      "inputs": [
        {
          "internalType": "address",
          "name": "to",
          "type": "address"
        },
        {
          "internalType": "uint256",
          "name": "tokenId",
          "type": "uint256"
        }
      ],
      "name": "approve",
      "outputs": [],
      "stateMutability": "nonpayable",
      "type": "function"
    },
    {
      "inputs": [
        {
          "internalType": "address",
          "name": "owner",
          "type": "address"
        }
      ],
      "name": "balanceOf",
      "outputs": [
        {
          "internalType": "uint256",
          "name": "",
          "type": "uint256"
        }
      ],
      "stateMutability": "view",
      "type": "function"
    },
    {
      "inputs": [
        {
          "internalType": "uint256",
          "name": "tokenId",
          "type": "uint256"
        }
      ],
      "name": "getApproved",
      "outputs": [
        {
          "internalType": "address",
          "name": "",
          "type": "address"
        }
      ],
      "stateMutability": "view",
      "type": "function"
    },
    {
      "inputs": [
        {
          "internalType": "uint256",
          "name": "_id",
          "type": "uint256"
        }
      ],
      "name": "getOccasion",
      "outputs": [
        {
          "components": [
            {
              "internalType": "uint256",
              "name": "id",
              "type": "uint256"
            },
            {
              "internalType": "string",
              "name": "name",
              "type": "string"
            },
            {
              "internalType": "uint256",
              "name": "cost",
              "type": "uint256"
            },
            {
              "internalType": "uint256",
              "name": "tickets",
              "type": "uint256"
            },
            {
              "internalType": "uint256",
              "name": "maxTickets",
              "type": "uint256"
            },
            {
              "internalType": "string",
              "name": "date",
              "type": "string"
            },
            {
              "internalType": "string",
              "name": "time",
              "type": "string"
            },
            {
              "internalType": "string",
              "name": "location",
              "type": "string"
            },
            {
              "internalType": "bool",
              "name": "iseighteenplus",
              "type": "bool"
            }
          ],
          "internalType": "struct ShowTime.Occasion",
          "name": "",
          "type": "tuple"
        }
      ],
      "stateMutability": "view",
      "type": "function"
    },
    {
      "inputs": [
        {
          "internalType": "uint256",
          "name": "_id",
          "type": "uint256"
        }
      ],
      "name": "getSeatsTaken",
      "outputs": [
        {
          "internalType": "uint256[]",
          "name": "",
          "type": "uint256[]"
        }
      ],
      "stateMutability": "view",
      "type": "function"
    },
    {
      "inputs": [
        {
          "internalType": "uint256",
          "name": "",
          "type": "uint256"
        },
        {
          "internalType": "address",
          "name": "",
          "type": "address"
        }
      ],
      "name": "hasBought",
      "outputs": [
        {
          "internalType": "bool",
          "name": "",
          "type": "bool"
        }
      ],
      "stateMutability": "view",
      "type": "function"
    },
    {
      "inputs": [
        {
          "internalType": "address",
          "name": "owner",
          "type": "address"
        },
        {
          "internalType": "address",
          "name": "operator",
          "type": "address"
        }
      ],
      "name": "isApprovedForAll",
      "outputs": [
        {
          "internalType": "bool",
          "name": "",
          "type": "bool"
        }
      ],
      "stateMutability": "view",
      "type": "function"
    },
    {
      "inputs": [
        {
          "internalType": "string",
          "name": "_name",
          "type": "string"
        },
        {
          "internalType": "uint256",
          "name": "_cost",
          "type": "uint256"
        },
        {
          "internalType": "uint256",
          "name": "_maxTickets",
          "type": "uint256"
        },
        {
          "internalType": "string",
          "name": "_date",
          "type": "string"
        },
        {
          "internalType": "string",
          "name": "_time",
          "type": "string"
        },
        {
          "internalType": "string",
          "name": "_location",
          "type": "string"
        },
        {
          "internalType": "bool",
          "name": "_iseighteenplus",
          "type": "bool"
        }
      ],
      "name": "list",
      "outputs": [],
      "stateMutability": "nonpayable",
      "type": "function"
    },
    {
      "inputs": [
        {
          "internalType": "uint256",
          "name": "_id",
          "type": "uint256"
        },
        {
          "internalType": "uint256",
          "name": "_seat",
          "type": "uint256"
        },
        {
          "internalType": "bool",
          "name": "isverified",
          "type": "bool"
        },
        {
          "internalType": "bool",
          "name": "iseighteen",
          "type": "bool"
        }
      ],
      "name": "mint",
      "outputs": [],
      "stateMutability": "payable",
      "type": "function"
    },
    {
      "inputs": [],
      "name": "name",
      "outputs": [
        {
          "internalType": "string",
          "name": "",
          "type": "string"
        }
      ],
      "stateMutability": "view",
      "type": "function"
    },
    {
      "inputs": [],
      "name": "owner",
      "outputs": [
        {
          "internalType": "address",
          "name": "",
          "type": "address"
        }
      ],
      "stateMutability": "view",
      "type": "function"
    },
    {
      "inputs": [
        {
          "internalType": "uint256",
          "name": "tokenId",
          "type": "uint256"
        }
      ],
      "name": "ownerOf",
      "outputs": [
        {
          "internalType": "address",
          "name": "",
          "type": "address"
        }
      ],
      "stateMutability": "view",
      "type": "function"
    },
    {
      "inputs": [
        {
          "internalType": "address",
          "name": "from",
          "type": "address"
        },
        {
          "internalType": "address",
          "name": "to",
          "type": "address"
        },
        {
          "internalType": "uint256",
          "name": "tokenId",
          "type": "uint256"
        }
      ],
      "name": "safeTransferFrom",
      "outputs": [],
      "stateMutability": "nonpayable",
      "type": "function"
    },
    {
      "inputs": [
        {
          "internalType": "address",
          "name": "from",
          "type": "address"
        },
        {
          "internalType": "address",
          "name": "to",
          "type": "address"
        },
        {
          "internalType": "uint256",
          "name": "tokenId",
          "type": "uint256"
        },
        {
          "internalType": "bytes",
          "name": "data",
          "type": "bytes"
        }
      ],
      "name": "safeTransferFrom",
      "outputs": [],
      "stateMutability": "nonpayable",
      "type": "function"
    },
    {
      "inputs": [
        {
          "internalType": "uint256",
          "name": "",
          "type": "uint256"
        },
        {
          "internalType": "uint256",
          "name": "",
          "type": "uint256"
        }
      ],
      "name": "seatTaken",
      "outputs": [
        {
          "internalType": "address",
          "name": "",
          "type": "address"
        }
      ],
      "stateMutability": "view",
      "type": "function"
    },
    {
      "inputs": [
        {
          "internalType": "address",
          "name": "operator",
          "type": "address"
        },
        {
          "internalType": "bool",
          "name": "approved",
          "type": "bool"
        }
      ],
      "name": "setApprovalForAll",
      "outputs": [],
      "stateMutability": "nonpayable",
      "type": "function"
    },
    {
      "inputs": [
        {
          "internalType": "bytes4",
          "name": "interfaceId",
          "type": "bytes4"
        }
      ],
      "name": "supportsInterface",
      "outputs": [
        {
          "internalType": "bool",
          "name": "",
          "type": "bool"
        }
      ],
      "stateMutability": "view",
      "type": "function"
    },
    {
      "inputs": [],
      "name": "symbol",
      "outputs": [
        {
          "internalType": "string",
          "name": "",
          "type": "string"
        }
      ],
      "stateMutability": "view",
      "type": "function"
    },
    {
      "inputs": [
        {
          "internalType": "uint256",
          "name": "tokenId",
          "type": "uint256"
        }
      ],
      "name": "tokenURI",
      "outputs": [
        {
          "internalType": "string",
          "name": "",
          "type": "string"
        }
      ],
      "stateMutability": "view",
      "type": "function"
    },
    {
      "inputs": [],
      "name": "totalOccasions",
      "outputs": [
        {
          "internalType": "uint256",
          "name": "",
          "type": "uint256"
        }
      ],
      "stateMutability": "view",
      "type": "function"
    },
    {
      "inputs": [],
      "name": "totalSupply",
      "outputs": [
        {
          "internalType": "uint256",
          "name": "",
          "type": "uint256"
        }
      ],
      "stateMutability": "view",
      "type": "function"
    },
    {
      "inputs": [
        {
          "internalType": "address",
          "name": "from",
          "type": "address"
        },
        {
          "internalType": "address",
          "name": "to",
          "type": "address"
        },
        {
          "internalType": "uint256",
          "name": "tokenId",
          "type": "uint256"
        }
      ],
      "name": "transferFrom",
      "outputs": [],
      "stateMutability": "nonpayable",
      "type": "function"
    },
    {
      "inputs": [],
      "name": "withdraw",
      "outputs": [],
      "stateMutability": "nonpayable",
      "type": "function"
    }
  ],
  "bytecode": "0x60806040523480156200001157600080fd5b5060405162003ebb38038062003ebb83398181016040528101906200003791906200023b565b818181600090816200004a91906200050b565b5080600190816200005c91906200050b565b50505033600660006101000a81548173ffffffffffffffffffffffffffffffffffffffff021916908373ffffffffffffffffffffffffffffffffffffffff1602179055505050620005f2565b6000604051905090565b600080fd5b600080fd5b600080fd5b600080fd5b6000601f19601f8301169050919050565b7f4e487b7100000000000000000000000000000000000000000000000000000000600052604160045260246000fd5b6200011182620000c6565b810181811067ffffffffffffffff82111715620001335762000132620000d7565b5b80604052505050565b600062000148620000a8565b905062000156828262000106565b919050565b600067ffffffffffffffff821115620001795762000178620000d7565b5b6200018482620000c6565b9050602081019050919050565b60005b83811015620001b157808201518184015260208101905062000194565b60008484015250505050565b6000620001d4620001ce846200015b565b6200013c565b905082815260208101848484011115620001f357620001f2620000c1565b5b6200020084828562000191565b509392505050565b600082601f83011262000220576200021f620000bc565b5b815162000232848260208601620001bd565b91505092915050565b60008060408385031215620002555762000254620000b2565b5b600083015167ffffffffffffffff811115620002765762000275620000b7565b5b620002848582860162000208565b925050602083015167ffffffffffffffff811115620002a857620002a7620000b7565b5b620002b68582860162000208565b9150509250929050565b600081519050919050565b7f4e487b7100000000000000000000000000000000000000000000000000000000600052602260045260246000fd5b600060028204905060018216806200031357607f821691505b602082108103620003295762000328620002cb565b5b50919050565b60008190508160005260206000209050919050565b60006020601f8301049050919050565b600082821b905092915050565b600060088302620003937fffffffffffffffffffffffffffffffffffffffffffffffffffffffffffffffff8262000354565b6200039f868362000354565b95508019841693508086168417925050509392505050565b6000819050919050565b6000819050919050565b6000620003ec620003e6620003e084620003b7565b620003c1565b620003b7565b9050919050565b6000819050919050565b6200040883620003cb565b620004206200041782620003f3565b84845462000361565b825550505050565b600090565b6200043762000428565b62000444818484620003fd565b505050565b5b818110156200046c57620004606000826200042d565b6001810190506200044a565b5050565b601f821115620004bb5762000485816200032f565b620004908462000344565b81016020851015620004a0578190505b620004b8620004af8562000344565b83018262000449565b50505b505050565b600082821c905092915050565b6000620004e060001984600802620004c0565b1980831691505092915050565b6000620004fb8383620004cd565b9150826002028217905092915050565b6200051682620002c0565b67ffffffffffffffff811115620005325762000531620000d7565b5b6200053e8254620002fa565b6200054b82828562000470565b600060209050601f8311600181146200058357600084156200056e578287015190505b6200057a8582620004ed565b865550620005ea565b601f19841662000593866200032f565b60005b82811015620005bd5784890151825560018201915060208501945060208101905062000596565b86831015620005dd5784890151620005d9601f891682620004cd565b8355505b6001600288020188555050505b505050505050565b6138b980620006026000396000f3fe6080604052600436106101405760003560e01c806367f7397a116100b65780639cb04aef1161006f5780639cb04aef14610461578063a22cb4651461049e578063af296da1146104c7578063b88d4fde14610504578063c87b56dd1461052d578063e985e9c51461056a57610140565b806367f7397a1461034a57806370a082311461036657806374bc8656146103a35780638da5cb5b146103e0578063953865c11461040b57806395d89b411461043657610140565b806318160ddd1161010857806318160ddd1461025057806323b872dd1461027b5780633ccfd60b146102a457806342842e0e146102bb57806348449834146102e45780636352211e1461030d57610140565b806301ffc9a71461014557806306fdde0314610182578063081812fc146101ad578063095ea7b3146101ea5780630ef7ec7414610213575b600080fd5b34801561015157600080fd5b5061016c60048036038101906101679190612377565b6105a7565b60405161017991906123bf565b60405180910390f35b34801561018e57600080fd5b50610197610689565b6040516101a4919061246a565b60405180910390f35b3480156101b957600080fd5b506101d460048036038101906101cf91906124c2565b61071b565b6040516101e19190612530565b60405180910390f35b3480156101f657600080fd5b50610211600480360381019061020c9190612577565b610761565b005b34801561021f57600080fd5b5061023a600480360381019061023591906124c2565b610878565b6040516102479190612675565b60405180910390f35b34801561025c57600080fd5b506102656108e3565b60405161027291906126a6565b60405180910390f35b34801561028757600080fd5b506102a2600480360381019061029d91906126c1565b6108e9565b005b3480156102b057600080fd5b506102b9610949565b005b3480156102c757600080fd5b506102e260048036038101906102dd91906126c1565b610a3e565b005b3480156102f057600080fd5b5061030b60048036038101906103069190612875565b610a5e565b005b34801561031957600080fd5b50610334600480360381019061032f91906124c2565b610bd6565b6040516103419190612530565b60405180910390f35b610364600480360381019061035f9190612987565b610c5c565b005b34801561037257600080fd5b5061038d600480360381019061038891906129ee565b610edc565b60405161039a91906126a6565b60405180910390f35b3480156103af57600080fd5b506103ca60048036038101906103c591906124c2565b610f93565b6040516103d79190612b4e565b60405180910390f35b3480156103ec57600080fd5b506103f561124c565b6040516104029190612530565b60405180910390f35b34801561041757600080fd5b50610420611272565b60405161042d91906126a6565b60405180910390f35b34801561044257600080fd5b5061044b611278565b604051610458919061246a565b60405180910390f35b34801561046d57600080fd5b5061048860048036038101906104839190612b70565b61130a565b60405161049591906123bf565b60405180910390f35b3480156104aa57600080fd5b506104c560048036038101906104c09190612bb0565b611339565b005b3480156104d357600080fd5b506104ee60048036038101906104e99190612bf0565b61134f565b6040516104fb9190612530565b60405180910390f35b34801561051057600080fd5b5061052b60048036038101906105269190612cd1565b611391565b005b34801561053957600080fd5b50610554600480360381019061054f91906124c2565b6113f3565b604051610561919061246a565b60405180910390f35b34801561057657600080fd5b50610591600480360381019061058c9190612d54565b61145b565b60405161059e91906123bf565b60405180910390f35b60007f80ac58cd000000000000000000000000000000000000000000000000000000007bffffffffffffffffffffffffffffffffffffffffffffffffffffffff1916827bffffffffffffffffffffffffffffffffffffffffffffffffffffffff1916148061067257507f5b5e139f000000000000000000000000000000000000000000000000000000007bffffffffffffffffffffffffffffffffffffffffffffffffffffffff1916827bffffffffffffffffffffffffffffffffffffffffffffffffffffffff1916145b806106825750610681826114ef565b5b9050919050565b60606000805461069890612dc3565b80601f01602080910402602001604051908101604052809291908181526020018280546106c490612dc3565b80156107115780601f106106e657610100808354040283529160200191610711565b820191906000526020600020905b8154815290600101906020018083116106f457829003601f168201915b5050505050905090565b600061072682611559565b6004600083815260200190815260200160002060009054906101000a900473ffffffffffffffffffffffffffffffffffffffff169050919050565b600061076c82610bd6565b90508073ffffffffffffffffffffffffffffffffffffffff168373ffffffffffffffffffffffffffffffffffffffff16036107dc576040517f08c379a00000000000000000000000000000000000000000000000000000000081526004016107d390612e66565b60405180910390fd5b8073ffffffffffffffffffffffffffffffffffffffff166107fb6115a4565b73ffffffffffffffffffffffffffffffffffffffff16148061082a5750610829816108246115a4565b61145b565b5b610869576040517f08c379a000000000000000000000000000000000000000000000000000000000815260040161086090612ef8565b60405180910390fd5b61087383836115ac565b505050565b6060600c60008381526020019081526020016000208054806020026020016040519081016040528092919081815260200182805480156108d757602002820191906000526020600020905b8154815260200190600101908083116108c3575b50505050509050919050565b60085481565b6108fa6108f46115a4565b82611665565b610939576040517f08c379a000000000000000000000000000000000000000000000000000000000815260040161093090612f8a565b60405180910390fd5b6109448383836116fa565b505050565b600660009054906101000a900473ffffffffffffffffffffffffffffffffffffffff1673ffffffffffffffffffffffffffffffffffffffff163373ffffffffffffffffffffffffffffffffffffffff16146109a357600080fd5b6000600660009054906101000a900473ffffffffffffffffffffffffffffffffffffffff1673ffffffffffffffffffffffffffffffffffffffff16476040516109eb90612fdb565b60006040518083038185875af1925050503d8060008114610a28576040519150601f19603f3d011682016040523d82523d6000602084013e610a2d565b606091505b5050905080610a3b57600080fd5b50565b610a5983838360405180602001604052806000815250611391565b505050565b600660009054906101000a900473ffffffffffffffffffffffffffffffffffffffff1673ffffffffffffffffffffffffffffffffffffffff163373ffffffffffffffffffffffffffffffffffffffff1614610ab857600080fd5b60076000815480929190610acb9061301f565b91905055506040518061012001604052806007548152602001888152602001878152602001868152602001868152602001858152602001848152602001838152602001821515815250600960006007548152602001908152602001600020600082015181600001556020820151816001019081610b489190613213565b5060408201518160020155606082015181600301556080820151816004015560a0820151816005019081610b7c9190613213565b5060c0820151816006019081610b929190613213565b5060e0820151816007019081610ba89190613213565b506101008201518160080160006101000a81548160ff02191690831515021790555090505050505050505050565b600080610be2836119f3565b9050600073ffffffffffffffffffffffffffffffffffffffff168173ffffffffffffffffffffffffffffffffffffffff1603610c53576040517f08c379a0000000000000000000000000000000000000000000000000000000008152600401610c4a90613331565b60405180910390fd5b80915050919050565b60008403610c6957600080fd5b600754841115610c7857600080fd5b6009600085815260200190815260200160002060020154341015610c9b57600080fd5b600073ffffffffffffffffffffffffffffffffffffffff16600b6000868152602001908152602001600020600085815260200190815260200160002060009054906101000a900473ffffffffffffffffffffffffffffffffffffffff1673ffffffffffffffffffffffffffffffffffffffff1614610d1857600080fd5b6009600085815260200190815260200160002060040154831115610d3b57600080fd5b60011515821515148015610d7557506009600085815260200190815260200160002060080160009054906101000a900460ff161515811515145b610d7e57600080fd5b6001600960008681526020019081526020016000206003016000828254610da59190613351565b925050819055506001600a600086815260200190815260200160002060003373ffffffffffffffffffffffffffffffffffffffff1673ffffffffffffffffffffffffffffffffffffffff16815260200190815260200160002060006101000a81548160ff02191690831515021790555033600b6000868152602001908152602001600020600085815260200190815260200160002060006101000a81548173ffffffffffffffffffffffffffffffffffffffff021916908373ffffffffffffffffffffffffffffffffffffffff160217905550600c600085815260200190815260200160002083908060018154018082558091505060019003906000526020600020016000909190919091505560086000815480929190610ec59061301f565b9190505550610ed633600854611a30565b50505050565b60008073ffffffffffffffffffffffffffffffffffffffff168273ffffffffffffffffffffffffffffffffffffffff1603610f4c576040517f08c379a0000000000000000000000000000000000000000000000000000000008152600401610f43906133f7565b60405180910390fd5b600360008373ffffffffffffffffffffffffffffffffffffffff1673ffffffffffffffffffffffffffffffffffffffff168152602001908152602001600020549050919050565b610f9b6122bd565b600960008381526020019081526020016000206040518061012001604052908160008201548152602001600182018054610fd490612dc3565b80601f016020809104026020016040519081016040528092919081815260200182805461100090612dc3565b801561104d5780601f106110225761010080835404028352916020019161104d565b820191906000526020600020905b81548152906001019060200180831161103057829003601f168201915b5050505050815260200160028201548152602001600382015481526020016004820154815260200160058201805461108490612dc3565b80601f01602080910402602001604051908101604052809291908181526020018280546110b090612dc3565b80156110fd5780601f106110d2576101008083540402835291602001916110fd565b820191906000526020600020905b8154815290600101906020018083116110e057829003601f168201915b5050505050815260200160068201805461111690612dc3565b80601f016020809104026020016040519081016040528092919081815260200182805461114290612dc3565b801561118f5780601f106111645761010080835404028352916020019161118f565b820191906000526020600020905b81548152906001019060200180831161117257829003601f168201915b505050505081526020016007820180546111a890612dc3565b80601f01602080910402602001604051908101604052809291908181526020018280546111d490612dc3565b80156112215780601f106111f657610100808354040283529160200191611221565b820191906000526020600020905b81548152906001019060200180831161120457829003601f168201915b505050505081526020016008820160009054906101000a900460ff1615151515815250509050919050565b600660009054906101000a900473ffffffffffffffffffffffffffffffffffffffff1681565b60075481565b60606001805461128790612dc3565b80601f01602080910402602001604051908101604052809291908181526020018280546112b390612dc3565b80156113005780601f106112d557610100808354040283529160200191611300565b820191906000526020600020905b8154815290600101906020018083116112e357829003601f168201915b5050505050905090565b600a6020528160005260406000206020528060005260406000206000915091509054906101000a900460ff1681565b61134b6113446115a4565b8383611a4e565b5050565b600b6020528160005260406000206020528060005260406000206000915091509054906101000a900473ffffffffffffffffffffffffffffffffffffffff1681565b6113a261139c6115a4565b83611665565b6113e1576040517f08c379a00000000000000000000000000000000000000000000000000000000081526004016113d890612f8a565b60405180910390fd5b6113ed84848484611bba565b50505050565b60606113fe82611559565b6000611408611c16565b905060008151116114285760405180602001604052806000815250611453565b8061143284611c2d565b604051602001611443929190613453565b6040516020818303038152906040525b915050919050565b6000600560008473ffffffffffffffffffffffffffffffffffffffff1673ffffffffffffffffffffffffffffffffffffffff16815260200190815260200160002060008373ffffffffffffffffffffffffffffffffffffffff1673ffffffffffffffffffffffffffffffffffffffff16815260200190815260200160002060009054906101000a900460ff16905092915050565b60007f01ffc9a7000000000000000000000000000000000000000000000000000000007bffffffffffffffffffffffffffffffffffffffffffffffffffffffff1916827bffffffffffffffffffffffffffffffffffffffffffffffffffffffff1916149050919050565b61156281611cfb565b6115a1576040517f08c379a000000000000000000000000000000000000000000000000000000000815260040161159890613331565b60405180910390fd5b50565b600033905090565b816004600083815260200190815260200160002060006101000a81548173ffffffffffffffffffffffffffffffffffffffff021916908373ffffffffffffffffffffffffffffffffffffffff160217905550808273ffffffffffffffffffffffffffffffffffffffff1661161f83610bd6565b73ffffffffffffffffffffffffffffffffffffffff167f8c5be1e5ebec7d5bd14f71427d1e84f3dd0314c0f7b2291e5b200ac8c7c3b92560405160405180910390a45050565b60008061167183610bd6565b90508073ffffffffffffffffffffffffffffffffffffffff168473ffffffffffffffffffffffffffffffffffffffff1614806116b357506116b2818561145b565b5b806116f157508373ffffffffffffffffffffffffffffffffffffffff166116d98461071b565b73ffffffffffffffffffffffffffffffffffffffff16145b91505092915050565b8273ffffffffffffffffffffffffffffffffffffffff1661171a82610bd6565b73ffffffffffffffffffffffffffffffffffffffff1614611770576040517f08c379a0000000000000000000000000000000000000000000000000000000008152600401611767906134e9565b60405180910390fd5b600073ffffffffffffffffffffffffffffffffffffffff168273ffffffffffffffffffffffffffffffffffffffff16036117df576040517f08c379a00000000000000000000000000000000000000000000000000000000081526004016117d69061357b565b60405180910390fd5b6117ec8383836001611d3c565b8273ffffffffffffffffffffffffffffffffffffffff1661180c82610bd6565b73ffffffffffffffffffffffffffffffffffffffff1614611862576040517f08c379a0000000000000000000000000000000000000000000000000000000008152600401611859906134e9565b60405180910390fd5b6004600082815260200190815260200160002060006101000a81549073ffffffffffffffffffffffffffffffffffffffff02191690556001600360008573ffffffffffffffffffffffffffffffffffffffff1673ffffffffffffffffffffffffffffffffffffffff168152602001908152602001600020600082825403925050819055506001600360008473ffffffffffffffffffffffffffffffffffffffff1673ffffffffffffffffffffffffffffffffffffffff16815260200190815260200160002060008282540192505081905550816002600083815260200190815260200160002060006101000a81548173ffffffffffffffffffffffffffffffffffffffff021916908373ffffffffffffffffffffffffffffffffffffffff160217905550808273ffffffffffffffffffffffffffffffffffffffff168473ffffffffffffffffffffffffffffffffffffffff167fddf252ad1be2c89b69c2b068fc378daa952ba7f163c4a11628f55a4df523b3ef60405160405180910390a46119ee8383836001611d42565b505050565b60006002600083815260200190815260200160002060009054906101000a900473ffffffffffffffffffffffffffffffffffffffff169050919050565b611a4a828260405180602001604052806000815250611d48565b5050565b8173ffffffffffffffffffffffffffffffffffffffff168373ffffffffffffffffffffffffffffffffffffffff1603611abc576040517f08c379a0000000000000000000000000000000000000000000000000000000008152600401611ab3906135e7565b60405180910390fd5b80600560008573ffffffffffffffffffffffffffffffffffffffff1673ffffffffffffffffffffffffffffffffffffffff16815260200190815260200160002060008473ffffffffffffffffffffffffffffffffffffffff1673ffffffffffffffffffffffffffffffffffffffff16815260200190815260200160002060006101000a81548160ff0219169083151502179055508173ffffffffffffffffffffffffffffffffffffffff168373ffffffffffffffffffffffffffffffffffffffff167f17307eab39ab6107e8899845ad3d59bd9653f200f220920489ca2b5937696c3183604051611bad91906123bf565b60405180910390a3505050565b611bc58484846116fa565b611bd184848484611da3565b611c10576040517f08c379a0000000000000000000000000000000000000000000000000000000008152600401611c0790613679565b60405180910390fd5b50505050565b606060405180602001604052806000815250905090565b606060006001611c3c84611f2a565b01905060008167ffffffffffffffff811115611c5b57611c5a61271e565b5b6040519080825280601f01601f191660200182016040528015611c8d5781602001600182028036833780820191505090505b509050600082602001820190505b600115611cf0578080600190039150507f3031323334353637383961626364656600000000000000000000000000000000600a86061a8153600a8581611ce457611ce3613699565b5b04945060008503611c9b575b819350505050919050565b60008073ffffffffffffffffffffffffffffffffffffffff16611d1d836119f3565b73ffffffffffffffffffffffffffffffffffffffff1614159050919050565b50505050565b50505050565b611d52838361207d565b611d5f6000848484611da3565b611d9e576040517f08c379a0000000000000000000000000000000000000000000000000000000008152600401611d9590613679565b60405180910390fd5b505050565b6000611dc48473ffffffffffffffffffffffffffffffffffffffff1661229a565b15611f1d578373ffffffffffffffffffffffffffffffffffffffff1663150b7a02611ded6115a4565b8786866040518563ffffffff1660e01b8152600401611e0f949392919061371d565b6020604051808303816000875af1925050508015611e4b57506040513d601f19601f82011682018060405250810190611e48919061377e565b60015b611ecd573d8060008114611e7b576040519150601f19603f3d011682016040523d82523d6000602084013e611e80565b606091505b506000815103611ec5576040517f08c379a0000000000000000000000000000000000000000000000000000000008152600401611ebc90613679565b60405180910390fd5b805181602001fd5b63150b7a0260e01b7bffffffffffffffffffffffffffffffffffffffffffffffffffffffff1916817bffffffffffffffffffffffffffffffffffffffffffffffffffffffff191614915050611f22565b600190505b949350505050565b600080600090507a184f03e93ff9f4daa797ed6e38ed64bf6a1f0100000000000000008310611f88577a184f03e93ff9f4daa797ed6e38ed64bf6a1f0100000000000000008381611f7e57611f7d613699565b5b0492506040810190505b6d04ee2d6d415b85acef81000000008310611fc5576d04ee2d6d415b85acef81000000008381611fbb57611fba613699565b5b0492506020810190505b662386f26fc100008310611ff457662386f26fc100008381611fea57611fe9613699565b5b0492506010810190505b6305f5e100831061201d576305f5e100838161201357612012613699565b5b0492506008810190505b612710831061204257612710838161203857612037613699565b5b0492506004810190505b60648310612065576064838161205b5761205a613699565b5b0492506002810190505b600a8310612074576001810190505b80915050919050565b600073ffffffffffffffffffffffffffffffffffffffff168273ffffffffffffffffffffffffffffffffffffffff16036120ec576040517f08c379a00000000000000000000000000000000000000000000000000000000081526004016120e3906137f7565b60405180910390fd5b6120f581611cfb565b15612135576040517f08c379a000000000000000000000000000000000000000000000000000000000815260040161212c90613863565b60405180910390fd5b612143600083836001611d3c565b61214c81611cfb565b1561218c576040517f08c379a000000000000000000000000000000000000000000000000000000000815260040161218390613863565b60405180910390fd5b6001600360008473ffffffffffffffffffffffffffffffffffffffff1673ffffffffffffffffffffffffffffffffffffffff16815260200190815260200160002060008282540192505081905550816002600083815260200190815260200160002060006101000a81548173ffffffffffffffffffffffffffffffffffffffff021916908373ffffffffffffffffffffffffffffffffffffffff160217905550808273ffffffffffffffffffffffffffffffffffffffff16600073ffffffffffffffffffffffffffffffffffffffff167fddf252ad1be2c89b69c2b068fc378daa952ba7f163c4a11628f55a4df523b3ef60405160405180910390a4612296600083836001611d42565b5050565b6000808273ffffffffffffffffffffffffffffffffffffffff163b119050919050565b60405180610120016040528060008152602001606081526020016000815260200160008152602001600081526020016060815260200160608152602001606081526020016000151581525090565b6000604051905090565b600080fd5b600080fd5b60007fffffffff0000000000000000000000000000000000000000000000000000000082169050919050565b6123548161231f565b811461235f57600080fd5b50565b6000813590506123718161234b565b92915050565b60006020828403121561238d5761238c612315565b5b600061239b84828501612362565b91505092915050565b60008115159050919050565b6123b9816123a4565b82525050565b60006020820190506123d460008301846123b0565b92915050565b600081519050919050565b600082825260208201905092915050565b60005b838110156124145780820151818401526020810190506123f9565b60008484015250505050565b6000601f19601f8301169050919050565b600061243c826123da565b61244681856123e5565b93506124568185602086016123f6565b61245f81612420565b840191505092915050565b600060208201905081810360008301526124848184612431565b905092915050565b6000819050919050565b61249f8161248c565b81146124aa57600080fd5b50565b6000813590506124bc81612496565b92915050565b6000602082840312156124d8576124d7612315565b5b60006124e6848285016124ad565b91505092915050565b600073ffffffffffffffffffffffffffffffffffffffff82169050919050565b600061251a826124ef565b9050919050565b61252a8161250f565b82525050565b60006020820190506125456000830184612521565b92915050565b6125548161250f565b811461255f57600080fd5b50565b6000813590506125718161254b565b92915050565b6000806040838503121561258e5761258d612315565b5b600061259c85828601612562565b92505060206125ad858286016124ad565b9150509250929050565b600081519050919050565b600082825260208201905092915050565b6000819050602082019050919050565b6125ec8161248c565b82525050565b60006125fe83836125e3565b60208301905092915050565b6000602082019050919050565b6000612622826125b7565b61262c81856125c2565b9350612637836125d3565b8060005b8381101561266857815161264f88826125f2565b975061265a8361260a565b92505060018101905061263b565b5085935050505092915050565b6000602082019050818103600083015261268f8184612617565b905092915050565b6126a08161248c565b82525050565b60006020820190506126bb6000830184612697565b92915050565b6000806000606084860312156126da576126d9612315565b5b60006126e886828701612562565b93505060206126f986828701612562565b925050604061270a868287016124ad565b9150509250925092565b600080fd5b600080fd5b7f4e487b7100000000000000000000000000000000000000000000000000000000600052604160045260246000fd5b61275682612420565b810181811067ffffffffffffffff821117156127755761277461271e565b5b80604052505050565b600061278861230b565b9050612794828261274d565b919050565b600067ffffffffffffffff8211156127b4576127b361271e565b5b6127bd82612420565b9050602081019050919050565b82818337600083830152505050565b60006127ec6127e784612799565b61277e565b90508281526020810184848401111561280857612807612719565b5b6128138482856127ca565b509392505050565b600082601f8301126128305761282f612714565b5b81356128408482602086016127d9565b91505092915050565b612852816123a4565b811461285d57600080fd5b50565b60008135905061286f81612849565b92915050565b600080600080600080600060e0888a03121561289457612893612315565b5b600088013567ffffffffffffffff8111156128b2576128b161231a565b5b6128be8a828b0161281b565b97505060206128cf8a828b016124ad565b96505060406128e08a828b016124ad565b955050606088013567ffffffffffffffff8111156129015761290061231a565b5b61290d8a828b0161281b565b945050608088013567ffffffffffffffff81111561292e5761292d61231a565b5b61293a8a828b0161281b565b93505060a088013567ffffffffffffffff81111561295b5761295a61231a565b5b6129678a828b0161281b565b92505060c06129788a828b01612860565b91505092959891949750929550565b600080600080608085870312156129a1576129a0612315565b5b60006129af878288016124ad565b94505060206129c0878288016124ad565b93505060406129d187828801612860565b92505060606129e287828801612860565b91505092959194509250565b600060208284031215612a0457612a03612315565b5b6000612a1284828501612562565b91505092915050565b600082825260208201905092915050565b6000612a37826123da565b612a418185612a1b565b9350612a518185602086016123f6565b612a5a81612420565b840191505092915050565b612a6e816123a4565b82525050565b600061012083016000830151612a8d60008601826125e3565b5060208301518482036020860152612aa58282612a2c565b9150506040830151612aba60408601826125e3565b506060830151612acd60608601826125e3565b506080830151612ae060808601826125e3565b5060a083015184820360a0860152612af88282612a2c565b91505060c083015184820360c0860152612b128282612a2c565b91505060e083015184820360e0860152612b2c8282612a2c565b915050610100830151612b43610100860182612a65565b508091505092915050565b60006020820190508181036000830152612b688184612a74565b905092915050565b60008060408385031215612b8757612b86612315565b5b6000612b95858286016124ad565b9250506020612ba685828601612562565b9150509250929050565b60008060408385031215612bc757612bc6612315565b5b6000612bd585828601612562565b9250506020612be685828601612860565b9150509250929050565b60008060408385031215612c0757612c06612315565b5b6000612c15858286016124ad565b9250506020612c26858286016124ad565b9150509250929050565b600067ffffffffffffffff821115612c4b57612c4a61271e565b5b612c5482612420565b9050602081019050919050565b6000612c74612c6f84612c30565b61277e565b905082815260208101848484011115612c9057612c8f612719565b5b612c9b8482856127ca565b509392505050565b600082601f830112612cb857612cb7612714565b5b8135612cc8848260208601612c61565b91505092915050565b60008060008060808587031215612ceb57612cea612315565b5b6000612cf987828801612562565b9450506020612d0a87828801612562565b9350506040612d1b878288016124ad565b925050606085013567ffffffffffffffff811115612d3c57612d3b61231a565b5b612d4887828801612ca3565b91505092959194509250565b60008060408385031215612d6b57612d6a612315565b5b6000612d7985828601612562565b9250506020612d8a85828601612562565b9150509250929050565b7f4e487b7100000000000000000000000000000000000000000000000000000000600052602260045260246000fd5b60006002820490506001821680612ddb57607f821691505b602082108103612dee57612ded612d94565b5b50919050565b7f4552433732313a20617070726f76616c20746f2063757272656e74206f776e6560008201527f7200000000000000000000000000000000000000000000000000000000000000602082015250565b6000612e506021836123e5565b9150612e5b82612df4565b604082019050919050565b60006020820190508181036000830152612e7f81612e43565b9050919050565b7f4552433732313a20617070726f76652063616c6c6572206973206e6f7420746f60008201527f6b656e206f776e6572206f7220617070726f76656420666f7220616c6c000000602082015250565b6000612ee2603d836123e5565b9150612eed82612e86565b604082019050919050565b60006020820190508181036000830152612f1181612ed5565b9050919050565b7f4552433732313a2063616c6c6572206973206e6f7420746f6b656e206f776e6560008201527f72206f7220617070726f76656400000000000000000000000000000000000000602082015250565b6000612f74602d836123e5565b9150612f7f82612f18565b604082019050919050565b60006020820190508181036000830152612fa381612f67565b9050919050565b600081905092915050565b50565b6000612fc5600083612faa565b9150612fd082612fb5565b600082019050919050565b6000612fe682612fb8565b9150819050919050565b7f4e487b7100000000000000000000000000000000000000000000000000000000600052601160045260246000fd5b600061302a8261248c565b91507fffffffffffffffffffffffffffffffffffffffffffffffffffffffffffffffff820361305c5761305b612ff0565b5b600182019050919050565b60008190508160005260206000209050919050565b60006020601f8301049050919050565b600082821b905092915050565b6000600883026130c97fffffffffffffffffffffffffffffffffffffffffffffffffffffffffffffffff8261308c565b6130d3868361308c565b95508019841693508086168417925050509392505050565b6000819050919050565b600061311061310b6131068461248c565b6130eb565b61248c565b9050919050565b6000819050919050565b61312a836130f5565b61313e61313682613117565b848454613099565b825550505050565b600090565b613153613146565b61315e818484613121565b505050565b5b818110156131825761317760008261314b565b600181019050613164565b5050565b601f8211156131c75761319881613067565b6131a18461307c565b810160208510156131b0578190505b6131c46131bc8561307c565b830182613163565b50505b505050565b600082821c905092915050565b60006131ea600019846008026131cc565b1980831691505092915050565b600061320383836131d9565b9150826002028217905092915050565b61321c826123da565b67ffffffffffffffff8111156132355761323461271e565b5b61323f8254612dc3565b61324a828285613186565b600060209050601f83116001811461327d576000841561326b578287015190505b61327585826131f7565b8655506132dd565b601f19841661328b86613067565b60005b828110156132b35784890151825560018201915060208501945060208101905061328e565b868310156132d057848901516132cc601f8916826131d9565b8355505b6001600288020188555050505b505050505050565b7f4552433732313a20696e76616c696420746f6b656e2049440000000000000000600082015250565b600061331b6018836123e5565b9150613326826132e5565b602082019050919050565b6000602082019050818103600083015261334a8161330e565b9050919050565b600061335c8261248c565b91506133678361248c565b925082820390508181111561337f5761337e612ff0565b5b92915050565b7f4552433732313a2061646472657373207a65726f206973206e6f74206120766160008201527f6c6964206f776e65720000000000000000000000000000000000000000000000602082015250565b60006133e16029836123e5565b91506133ec82613385565b604082019050919050565b60006020820190508181036000830152613410816133d4565b9050919050565b600081905092915050565b600061342d826123da565b6134378185613417565b93506134478185602086016123f6565b80840191505092915050565b600061345f8285613422565b915061346b8284613422565b91508190509392505050565b7f4552433732313a207472616e736665722066726f6d20696e636f72726563742060008201527f6f776e6572000000000000000000000000000000000000000000000000000000602082015250565b60006134d36025836123e5565b91506134de82613477565b604082019050919050565b60006020820190508181036000830152613502816134c6565b9050919050565b7f4552433732313a207472616e7366657220746f20746865207a65726f2061646460008201527f7265737300000000000000000000000000000000000000000000000000000000602082015250565b60006135656024836123e5565b915061357082613509565b604082019050919050565b6000602082019050818103600083015261359481613558565b9050919050565b7f4552433732313a20617070726f766520746f2063616c6c657200000000000000600082015250565b60006135d16019836123e5565b91506135dc8261359b565b602082019050919050565b60006020820190508181036000830152613600816135c4565b9050919050565b7f4552433732313a207472616e7366657220746f206e6f6e20455243373231526560008201527f63656976657220696d706c656d656e7465720000000000000000000000000000602082015250565b60006136636032836123e5565b915061366e82613607565b604082019050919050565b6000602082019050818103600083015261369281613656565b9050919050565b7f4e487b7100000000000000000000000000000000000000000000000000000000600052601260045260246000fd5b600081519050919050565b600082825260208201905092915050565b60006136ef826136c8565b6136f981856136d3565b93506137098185602086016123f6565b61371281612420565b840191505092915050565b60006080820190506137326000830187612521565b61373f6020830186612521565b61374c6040830185612697565b818103606083015261375e81846136e4565b905095945050505050565b6000815190506137788161234b565b92915050565b60006020828403121561379457613793612315565b5b60006137a284828501613769565b91505092915050565b7f4552433732313a206d696e7420746f20746865207a65726f2061646472657373600082015250565b60006137e16020836123e5565b91506137ec826137ab565b602082019050919050565b60006020820190508181036000830152613810816137d4565b9050919050565b7f4552433732313a20746f6b656e20616c7265616479206d696e74656400000000600082015250565b600061384d601c836123e5565b915061385882613817565b602082019050919050565b6000602082019050818103600083015261387c81613840565b905091905056fea26469706673582212207c36b11645b4d796b603a9a730cc7350e3ae433db6f126151789bcbf3abe2a2464736f6c63430008130033",
  "linkReferences": {},
  "deployedLinkReferences": {}
}