{
  "_format": "hh-sol-artifact-1",
  "contractName": "ShowTime",
  "sourceName": "contracts/ShowTime.sol",
  "abi": [
    {
      "inputs": [
        {
          "internalType": "string",
          "name": "_name",
          "type": "string"
        },
        {
          "internalType": "string",
          "name": "_symbol",
          "type": "string"
        },
        {
          "internalType": "address",
          "name": "_verifierAddr",
          "type": "address"
        }
      ],
      "stateMutability": "nonpayable",
      "type": "constructor"
    },
    {
      "anonymous": false,
      "inputs": [
        {
          "indexed": true,
          "internalType": "address",
          "name": "owner",
          "type": "address"
        },
        {
          "indexed": true,
          "internalType": "address",
          "name": "approved",
          "type": "address"
        },
        {
          "indexed": true,
          "internalType": "uint256",
          "name": "tokenId",
          "type": "uint256"
        }
      ],
      "name": "Approval",
      "type": "event"
    },
    {
      "anonymous": false,
      "inputs": [
        {
          "indexed": true,
          "internalType": "address",
          "name": "owner",
          "type": "address"
        },
        {
          "indexed": true,
          "internalType": "address",
          "name": "operator",
          "type": "address"
        },
        {
          "indexed": false,
          "internalType": "bool",
          "name": "approved",
          "type": "bool"
        }
      ],
      "name": "ApprovalForAll",
      "type": "event"
    },
    {
      "anonymous": false,
      "inputs": [
        {
          "indexed": true,
          "internalType": "address",
          "name": "from",
          "type": "address"
        },
        {
          "indexed": true,
          "internalType": "address",
          "name": "to",
          "type": "address"
        },
        {
          "indexed": true,
          "internalType": "uint256",
          "name": "tokenId",
          "type": "uint256"
        }
      ],
      "name": "Transfer",
      "type": "event"
    },
    {
      "inputs": [],
      "name": "anonAadhaarVerifierAddr",
      "outputs": [
        {
          "internalType": "address",
          "name": "",
          "type": "address"
        }
      ],
      "stateMutability": "view",
      "type": "function"
    },
    {
      "inputs": [
        {
          "internalType": "address",
          "name": "to",
          "type": "address"
        },
        {
          "internalType": "uint256",
          "name": "tokenId",
          "type": "uint256"
        }
      ],
      "name": "approve",
      "outputs": [],
      "stateMutability": "nonpayable",
      "type": "function"
    },
    {
      "inputs": [
        {
          "internalType": "address",
          "name": "owner",
          "type": "address"
        }
      ],
      "name": "balanceOf",
      "outputs": [
        {
          "internalType": "uint256",
          "name": "",
          "type": "uint256"
        }
      ],
      "stateMutability": "view",
      "type": "function"
    },
    {
      "inputs": [
        {
          "internalType": "uint256",
          "name": "tokenId",
          "type": "uint256"
        }
      ],
      "name": "getApproved",
      "outputs": [
        {
          "internalType": "address",
          "name": "",
          "type": "address"
        }
      ],
      "stateMutability": "view",
      "type": "function"
    },
    {
      "inputs": [
        {
          "internalType": "uint256",
          "name": "_id",
          "type": "uint256"
        }
      ],
      "name": "getOccasion",
      "outputs": [
        {
          "components": [
            {
              "internalType": "uint256",
              "name": "id",
              "type": "uint256"
            },
            {
              "internalType": "string",
              "name": "name",
              "type": "string"
            },
            {
              "internalType": "uint256",
              "name": "cost",
              "type": "uint256"
            },
            {
              "internalType": "uint256",
              "name": "tickets",
              "type": "uint256"
            },
            {
              "internalType": "uint256",
              "name": "maxTickets",
              "type": "uint256"
            },
            {
              "internalType": "string",
              "name": "date",
              "type": "string"
            },
            {
              "internalType": "string",
              "name": "time",
              "type": "string"
            },
            {
              "internalType": "string",
              "name": "location",
              "type": "string"
            },
            {
              "internalType": "bool",
              "name": "iseighteenplus",
              "type": "bool"
            }
          ],
          "internalType": "struct ShowTime.Occasion",
          "name": "",
          "type": "tuple"
        }
      ],
      "stateMutability": "view",
      "type": "function"
    },
    {
      "inputs": [
        {
          "internalType": "uint256",
          "name": "_id",
          "type": "uint256"
        }
      ],
      "name": "getSeatsTaken",
      "outputs": [
        {
          "internalType": "uint256[]",
          "name": "",
          "type": "uint256[]"
        }
      ],
      "stateMutability": "view",
      "type": "function"
    },
    {
      "inputs": [
        {
          "internalType": "uint256",
          "name": "",
          "type": "uint256"
        },
        {
          "internalType": "address",
          "name": "",
          "type": "address"
        }
      ],
      "name": "hasBought",
      "outputs": [
        {
          "internalType": "bool",
          "name": "",
          "type": "bool"
        }
      ],
      "stateMutability": "view",
      "type": "function"
    },
    {
      "inputs": [
        {
          "internalType": "address",
          "name": "owner",
          "type": "address"
        },
        {
          "internalType": "address",
          "name": "operator",
          "type": "address"
        }
      ],
      "name": "isApprovedForAll",
      "outputs": [
        {
          "internalType": "bool",
          "name": "",
          "type": "bool"
        }
      ],
      "stateMutability": "view",
      "type": "function"
    },
    {
      "inputs": [
        {
          "internalType": "string",
          "name": "_name",
          "type": "string"
        },
        {
          "internalType": "uint256",
          "name": "_cost",
          "type": "uint256"
        },
        {
          "internalType": "uint256",
          "name": "_maxTickets",
          "type": "uint256"
        },
        {
          "internalType": "string",
          "name": "_date",
          "type": "string"
        },
        {
          "internalType": "string",
          "name": "_time",
          "type": "string"
        },
        {
          "internalType": "string",
          "name": "_location",
          "type": "string"
        },
        {
          "internalType": "bool",
          "name": "_iseighteenplus",
          "type": "bool"
        }
      ],
      "name": "list",
      "outputs": [],
      "stateMutability": "nonpayable",
      "type": "function"
    },
    {
      "inputs": [
        {
          "internalType": "uint256",
          "name": "_id",
          "type": "uint256"
        },
        {
          "internalType": "uint256",
          "name": "_seat",
          "type": "uint256"
        },
        {
          "internalType": "uint256",
          "name": "nullifierSeed",
          "type": "uint256"
        },
        {
          "internalType": "uint256",
          "name": "nullifier",
          "type": "uint256"
        },
        {
          "internalType": "uint256",
          "name": "timestamp",
          "type": "uint256"
        },
        {
          "internalType": "uint256",
          "name": "signal",
          "type": "uint256"
        },
        {
          "internalType": "uint256[4]",
          "name": "revealArray",
          "type": "uint256[4]"
        },
        {
          "internalType": "uint256[8]",
          "name": "groth16Proof",
          "type": "uint256[8]"
        }
      ],
      "name": "mint",
      "outputs": [],
      "stateMutability": "payable",
      "type": "function"
    },
    {
      "inputs": [],
      "name": "name",
      "outputs": [
        {
          "internalType": "string",
          "name": "",
          "type": "string"
        }
      ],
      "stateMutability": "view",
      "type": "function"
    },
    {
      "inputs": [],
      "name": "owner",
      "outputs": [
        {
          "internalType": "address",
          "name": "",
          "type": "address"
        }
      ],
      "stateMutability": "view",
      "type": "function"
    },
    {
      "inputs": [
        {
          "internalType": "uint256",
          "name": "tokenId",
          "type": "uint256"
        }
      ],
      "name": "ownerOf",
      "outputs": [
        {
          "internalType": "address",
          "name": "",
          "type": "address"
        }
      ],
      "stateMutability": "view",
      "type": "function"
    },
    {
      "inputs": [
        {
          "internalType": "address",
          "name": "from",
          "type": "address"
        },
        {
          "internalType": "address",
          "name": "to",
          "type": "address"
        },
        {
          "internalType": "uint256",
          "name": "tokenId",
          "type": "uint256"
        }
      ],
      "name": "safeTransferFrom",
      "outputs": [],
      "stateMutability": "nonpayable",
      "type": "function"
    },
    {
      "inputs": [
        {
          "internalType": "address",
          "name": "from",
          "type": "address"
        },
        {
          "internalType": "address",
          "name": "to",
          "type": "address"
        },
        {
          "internalType": "uint256",
          "name": "tokenId",
          "type": "uint256"
        },
        {
          "internalType": "bytes",
          "name": "data",
          "type": "bytes"
        }
      ],
      "name": "safeTransferFrom",
      "outputs": [],
      "stateMutability": "nonpayable",
      "type": "function"
    },
    {
      "inputs": [
        {
          "internalType": "uint256",
          "name": "",
          "type": "uint256"
        },
        {
          "internalType": "uint256",
          "name": "",
          "type": "uint256"
        }
      ],
      "name": "seatTaken",
      "outputs": [
        {
          "internalType": "address",
          "name": "",
          "type": "address"
        }
      ],
      "stateMutability": "view",
      "type": "function"
    },
    {
      "inputs": [
        {
          "internalType": "address",
          "name": "operator",
          "type": "address"
        },
        {
          "internalType": "bool",
          "name": "approved",
          "type": "bool"
        }
      ],
      "name": "setApprovalForAll",
      "outputs": [],
      "stateMutability": "nonpayable",
      "type": "function"
    },
    {
      "inputs": [
        {
          "internalType": "bytes4",
          "name": "interfaceId",
          "type": "bytes4"
        }
      ],
      "name": "supportsInterface",
      "outputs": [
        {
          "internalType": "bool",
          "name": "",
          "type": "bool"
        }
      ],
      "stateMutability": "view",
      "type": "function"
    },
    {
      "inputs": [],
      "name": "symbol",
      "outputs": [
        {
          "internalType": "string",
          "name": "",
          "type": "string"
        }
      ],
      "stateMutability": "view",
      "type": "function"
    },
    {
      "inputs": [
        {
          "internalType": "uint256",
          "name": "tokenId",
          "type": "uint256"
        }
      ],
      "name": "tokenURI",
      "outputs": [
        {
          "internalType": "string",
          "name": "",
          "type": "string"
        }
      ],
      "stateMutability": "view",
      "type": "function"
    },
    {
      "inputs": [],
      "name": "totalOccasions",
      "outputs": [
        {
          "internalType": "uint256",
          "name": "",
          "type": "uint256"
        }
      ],
      "stateMutability": "view",
      "type": "function"
    },
    {
      "inputs": [],
      "name": "totalSupply",
      "outputs": [
        {
          "internalType": "uint256",
          "name": "",
          "type": "uint256"
        }
      ],
      "stateMutability": "view",
      "type": "function"
    },
    {
      "inputs": [
        {
          "internalType": "address",
          "name": "from",
          "type": "address"
        },
        {
          "internalType": "address",
          "name": "to",
          "type": "address"
        },
        {
          "internalType": "uint256",
          "name": "tokenId",
          "type": "uint256"
        }
      ],
      "name": "transferFrom",
      "outputs": [],
      "stateMutability": "nonpayable",
      "type": "function"
    },
    {
      "inputs": [],
      "name": "withdraw",
      "outputs": [],
      "stateMutability": "nonpayable",
      "type": "function"
    }
  ],
  "bytecode": "0x60806040523480156200001157600080fd5b506040516200459c3803806200459c8339818101604052810190620000379190620002e2565b828281600090816200004a9190620005c7565b5080600190816200005c9190620005c7565b50505033600660006101000a81548173ffffffffffffffffffffffffffffffffffffffff021916908373ffffffffffffffffffffffffffffffffffffffff16021790555080600760006101000a81548173ffffffffffffffffffffffffffffffffffffffff021916908373ffffffffffffffffffffffffffffffffffffffff160217905550505050620006ae565b6000604051905090565b600080fd5b600080fd5b600080fd5b600080fd5b6000601f19601f8301169050919050565b7f4e487b7100000000000000000000000000000000000000000000000000000000600052604160045260246000fd5b620001538262000108565b810181811067ffffffffffffffff8211171562000175576200017462000119565b5b80604052505050565b60006200018a620000ea565b905062000198828262000148565b919050565b600067ffffffffffffffff821115620001bb57620001ba62000119565b5b620001c68262000108565b9050602081019050919050565b60005b83811015620001f3578082015181840152602081019050620001d6565b60008484015250505050565b60006200021662000210846200019d565b6200017e565b90508281526020810184848401111562000235576200023462000103565b5b62000242848285620001d3565b509392505050565b600082601f830112620002625762000261620000fe565b5b815162000274848260208601620001ff565b91505092915050565b600073ffffffffffffffffffffffffffffffffffffffff82169050919050565b6000620002aa826200027d565b9050919050565b620002bc816200029d565b8114620002c857600080fd5b50565b600081519050620002dc81620002b1565b92915050565b600080600060608486031215620002fe57620002fd620000f4565b5b600084015167ffffffffffffffff8111156200031f576200031e620000f9565b5b6200032d868287016200024a565b935050602084015167ffffffffffffffff811115620003515762000350620000f9565b5b6200035f868287016200024a565b92505060406200037286828701620002cb565b9150509250925092565b600081519050919050565b7f4e487b7100000000000000000000000000000000000000000000000000000000600052602260045260246000fd5b60006002820490506001821680620003cf57607f821691505b602082108103620003e557620003e462000387565b5b50919050565b60008190508160005260206000209050919050565b60006020601f8301049050919050565b600082821b905092915050565b6000600883026200044f7fffffffffffffffffffffffffffffffffffffffffffffffffffffffffffffffff8262000410565b6200045b868362000410565b95508019841693508086168417925050509392505050565b6000819050919050565b6000819050919050565b6000620004a8620004a26200049c8462000473565b6200047d565b62000473565b9050919050565b6000819050919050565b620004c48362000487565b620004dc620004d382620004af565b8484546200041d565b825550505050565b600090565b620004f3620004e4565b62000500818484620004b9565b505050565b5b8181101562000528576200051c600082620004e9565b60018101905062000506565b5050565b601f82111562000577576200054181620003eb565b6200054c8462000400565b810160208510156200055c578190505b620005746200056b8562000400565b83018262000505565b50505b505050565b600082821c905092915050565b60006200059c600019846008026200057c565b1980831691505092915050565b6000620005b7838362000589565b9150826002028217905092915050565b620005d2826200037c565b67ffffffffffffffff811115620005ee57620005ed62000119565b5b620005fa8254620003b6565b620006078282856200052c565b600060209050601f8311600181146200063f57600084156200062a578287015190505b620006368582620005a9565b865550620006a6565b601f1984166200064f86620003eb565b60005b82811015620006795784890151825560018201915060208501945060208101905062000652565b8683101562000699578489015162000695601f89168262000589565b8355505b6001600288020188555050505b505050505050565b613ede80620006be6000396000f3fe60806040526004361061014b5760003560e01c80636352211e116100b65780639cb04aef1161006f5780639cb04aef14610497578063a22cb465146104d4578063af296da1146104fd578063b88d4fde1461053a578063c87b56dd14610563578063e985e9c5146105a05761014b565b80636352211e1461035f57806370a082311461039c57806374bc8656146103d95780638da5cb5b14610416578063953865c11461044157806395d89b411461046c5761014b565b806318160ddd1161010857806318160ddd1461028657806323b872dd146102b15780633ccfd60b146102da57806342842e0e146102f1578063484498341461031a5780635545147d146103435761014b565b806301ffc9a71461015057806306fdde031461018d578063081812fc146101b8578063095ea7b3146101f55780630dbffbcd1461021e5780630ef7ec7414610249575b600080fd5b34801561015c57600080fd5b506101776004803603810190610172919061250b565b6105dd565b6040516101849190612553565b60405180910390f35b34801561019957600080fd5b506101a26106bf565b6040516101af91906125fe565b60405180910390f35b3480156101c457600080fd5b506101df60048036038101906101da9190612656565b610751565b6040516101ec91906126c4565b60405180910390f35b34801561020157600080fd5b5061021c6004803603810190610217919061270b565b610797565b005b34801561022a57600080fd5b506102336108ae565b60405161024091906126c4565b60405180910390f35b34801561025557600080fd5b50610270600480360381019061026b9190612656565b6108d4565b60405161027d9190612809565b60405180910390f35b34801561029257600080fd5b5061029b61093f565b6040516102a8919061283a565b60405180910390f35b3480156102bd57600080fd5b506102d860048036038101906102d39190612855565b610945565b005b3480156102e657600080fd5b506102ef6109a5565b005b3480156102fd57600080fd5b5061031860048036038101906103139190612855565b610a9a565b005b34801561032657600080fd5b50610341600480360381019061033c9190612a09565b610aba565b005b61035d60048036038101906103589190612c82565b610c32565b005b34801561036b57600080fd5b5061038660048036038101906103819190612656565b610fea565b60405161039391906126c4565b60405180910390f35b3480156103a857600080fd5b506103c360048036038101906103be9190612d39565b611070565b6040516103d0919061283a565b60405180910390f35b3480156103e557600080fd5b5061040060048036038101906103fb9190612656565b611127565b60405161040d9190612e99565b60405180910390f35b34801561042257600080fd5b5061042b6113e0565b60405161043891906126c4565b60405180910390f35b34801561044d57600080fd5b50610456611406565b604051610463919061283a565b60405180910390f35b34801561047857600080fd5b5061048161140c565b60405161048e91906125fe565b60405180910390f35b3480156104a357600080fd5b506104be60048036038101906104b99190612ebb565b61149e565b6040516104cb9190612553565b60405180910390f35b3480156104e057600080fd5b506104fb60048036038101906104f69190612efb565b6114cd565b005b34801561050957600080fd5b50610524600480360381019061051f9190612f3b565b6114e3565b60405161053191906126c4565b60405180910390f35b34801561054657600080fd5b50610561600480360381019061055c919061301c565b611525565b005b34801561056f57600080fd5b5061058a60048036038101906105859190612656565b611587565b60405161059791906125fe565b60405180910390f35b3480156105ac57600080fd5b506105c760048036038101906105c2919061309f565b6115ef565b6040516105d49190612553565b60405180910390f35b60007f80ac58cd000000000000000000000000000000000000000000000000000000007bffffffffffffffffffffffffffffffffffffffffffffffffffffffff1916827bffffffffffffffffffffffffffffffffffffffffffffffffffffffff191614806106a857507f5b5e139f000000000000000000000000000000000000000000000000000000007bffffffffffffffffffffffffffffffffffffffffffffffffffffffff1916827bffffffffffffffffffffffffffffffffffffffffffffffffffffffff1916145b806106b857506106b782611683565b5b9050919050565b6060600080546106ce9061310e565b80601f01602080910402602001604051908101604052809291908181526020018280546106fa9061310e565b80156107475780601f1061071c57610100808354040283529160200191610747565b820191906000526020600020905b81548152906001019060200180831161072a57829003601f168201915b5050505050905090565b600061075c826116ed565b6004600083815260200190815260200160002060009054906101000a900473ffffffffffffffffffffffffffffffffffffffff169050919050565b60006107a282610fea565b90508073ffffffffffffffffffffffffffffffffffffffff168373ffffffffffffffffffffffffffffffffffffffff1603610812576040517f08c379a0000000000000000000000000000000000000000000000000000000008152600401610809906131b1565b60405180910390fd5b8073ffffffffffffffffffffffffffffffffffffffff16610831611738565b73ffffffffffffffffffffffffffffffffffffffff161480610860575061085f8161085a611738565b6115ef565b5b61089f576040517f08c379a000000000000000000000000000000000000000000000000000000000815260040161089690613243565b60405180910390fd5b6108a98383611740565b505050565b600760009054906101000a900473ffffffffffffffffffffffffffffffffffffffff1681565b6060600d600083815260200190815260200160002080548060200260200160405190810160405280929190818152602001828054801561093357602002820191906000526020600020905b81548152602001906001019080831161091f575b50505050509050919050565b60095481565b610956610950611738565b826117f9565b610995576040517f08c379a000000000000000000000000000000000000000000000000000000000815260040161098c906132d5565b60405180910390fd5b6109a083838361188e565b505050565b600660009054906101000a900473ffffffffffffffffffffffffffffffffffffffff1673ffffffffffffffffffffffffffffffffffffffff163373ffffffffffffffffffffffffffffffffffffffff16146109ff57600080fd5b6000600660009054906101000a900473ffffffffffffffffffffffffffffffffffffffff1673ffffffffffffffffffffffffffffffffffffffff1647604051610a4790613326565b60006040518083038185875af1925050503d8060008114610a84576040519150601f19603f3d011682016040523d82523d6000602084013e610a89565b606091505b5050905080610a9757600080fd5b50565b610ab583838360405180602001604052806000815250611525565b505050565b600660009054906101000a900473ffffffffffffffffffffffffffffffffffffffff1673ffffffffffffffffffffffffffffffffffffffff163373ffffffffffffffffffffffffffffffffffffffff1614610b1457600080fd5b60086000815480929190610b279061336a565b91905055506040518061012001604052806008548152602001888152602001878152602001868152602001868152602001858152602001848152602001838152602001821515815250600a60006008548152602001908152602001600020600082015181600001556020820151816001019081610ba4919061355e565b5060408201518160020155606082015181600301556080820151816004015560a0820151816005019081610bd8919061355e565b5060c0820151816006019081610bee919061355e565b5060e0820151816007019081610c04919061355e565b506101008201518160080160006101000a81548160ff02191690831515021790555090505050505050505050565b60008803610c3f57600080fd5b600854881115610c4e57600080fd5b600a600089815260200190815260200160002060020154341015610c7157600080fd5b600073ffffffffffffffffffffffffffffffffffffffff16600c60008a8152602001908152602001600020600089815260200190815260200160002060009054906101000a900473ffffffffffffffffffffffffffffffffffffffff1673ffffffffffffffffffffffffffffffffffffffff1614610cee57600080fd5b600a600089815260200190815260200160002060040154871115610d1157600080fd5b60011515600760009054906101000a900473ffffffffffffffffffffffffffffffffffffffff1673ffffffffffffffffffffffffffffffffffffffff166350de0e578888888888886040518763ffffffff1660e01b8152600401610d7a96959493929190613738565b602060405180830381865afa158015610d97573d6000803e3d6000fd5b505050506040513d601f19601f82011682018060405250810190610dbb91906137b0565b151514610dfd576040517f08c379a0000000000000000000000000000000000000000000000000000000008152600401610df49061384f565b60405180910390fd5b60011515600a60008a815260200190815260200160002060080160009054906101000a900460ff16151503610e8857600182600060048110610e4257610e4161386f565b5b602002015114610e87576040517f08c379a0000000000000000000000000000000000000000000000000000000008152600401610e7e906138ea565b60405180910390fd5b5b6001600a60008a81526020019081526020016000206003016000828254610eaf919061390a565b925050819055506001600b60008a815260200190815260200160002060003373ffffffffffffffffffffffffffffffffffffffff1673ffffffffffffffffffffffffffffffffffffffff16815260200190815260200160002060006101000a81548160ff02191690831515021790555033600c60008a8152602001908152602001600020600089815260200190815260200160002060006101000a81548173ffffffffffffffffffffffffffffffffffffffff021916908373ffffffffffffffffffffffffffffffffffffffff160217905550600d600089815260200190815260200160002087908060018154018082558091505060019003906000526020600020016000909190919091505560096000815480929190610fcf9061336a565b9190505550610fe033600954611b87565b5050505050505050565b600080610ff683611ba5565b9050600073ffffffffffffffffffffffffffffffffffffffff168173ffffffffffffffffffffffffffffffffffffffff1603611067576040517f08c379a000000000000000000000000000000000000000000000000000000000815260040161105e9061398a565b60405180910390fd5b80915050919050565b60008073ffffffffffffffffffffffffffffffffffffffff168273ffffffffffffffffffffffffffffffffffffffff16036110e0576040517f08c379a00000000000000000000000000000000000000000000000000000000081526004016110d790613a1c565b60405180910390fd5b600360008373ffffffffffffffffffffffffffffffffffffffff1673ffffffffffffffffffffffffffffffffffffffff168152602001908152602001600020549050919050565b61112f612451565b600a600083815260200190815260200160002060405180610120016040529081600082015481526020016001820180546111689061310e565b80601f01602080910402602001604051908101604052809291908181526020018280546111949061310e565b80156111e15780601f106111b6576101008083540402835291602001916111e1565b820191906000526020600020905b8154815290600101906020018083116111c457829003601f168201915b505050505081526020016002820154815260200160038201548152602001600482015481526020016005820180546112189061310e565b80601f01602080910402602001604051908101604052809291908181526020018280546112449061310e565b80156112915780601f1061126657610100808354040283529160200191611291565b820191906000526020600020905b81548152906001019060200180831161127457829003601f168201915b505050505081526020016006820180546112aa9061310e565b80601f01602080910402602001604051908101604052809291908181526020018280546112d69061310e565b80156113235780601f106112f857610100808354040283529160200191611323565b820191906000526020600020905b81548152906001019060200180831161130657829003601f168201915b5050505050815260200160078201805461133c9061310e565b80601f01602080910402602001604051908101604052809291908181526020018280546113689061310e565b80156113b55780601f1061138a576101008083540402835291602001916113b5565b820191906000526020600020905b81548152906001019060200180831161139857829003601f168201915b505050505081526020016008820160009054906101000a900460ff1615151515815250509050919050565b600660009054906101000a900473ffffffffffffffffffffffffffffffffffffffff1681565b60085481565b60606001805461141b9061310e565b80601f01602080910402602001604051908101604052809291908181526020018280546114479061310e565b80156114945780601f1061146957610100808354040283529160200191611494565b820191906000526020600020905b81548152906001019060200180831161147757829003601f168201915b5050505050905090565b600b6020528160005260406000206020528060005260406000206000915091509054906101000a900460ff1681565b6114df6114d8611738565b8383611be2565b5050565b600c6020528160005260406000206020528060005260406000206000915091509054906101000a900473ffffffffffffffffffffffffffffffffffffffff1681565b611536611530611738565b836117f9565b611575576040517f08c379a000000000000000000000000000000000000000000000000000000000815260040161156c906132d5565b60405180910390fd5b61158184848484611d4e565b50505050565b6060611592826116ed565b600061159c611daa565b905060008151116115bc57604051806020016040528060008152506115e7565b806115c684611dc1565b6040516020016115d7929190613a78565b6040516020818303038152906040525b915050919050565b6000600560008473ffffffffffffffffffffffffffffffffffffffff1673ffffffffffffffffffffffffffffffffffffffff16815260200190815260200160002060008373ffffffffffffffffffffffffffffffffffffffff1673ffffffffffffffffffffffffffffffffffffffff16815260200190815260200160002060009054906101000a900460ff16905092915050565b60007f01ffc9a7000000000000000000000000000000000000000000000000000000007bffffffffffffffffffffffffffffffffffffffffffffffffffffffff1916827bffffffffffffffffffffffffffffffffffffffffffffffffffffffff1916149050919050565b6116f681611e8f565b611735576040517f08c379a000000000000000000000000000000000000000000000000000000000815260040161172c9061398a565b60405180910390fd5b50565b600033905090565b816004600083815260200190815260200160002060006101000a81548173ffffffffffffffffffffffffffffffffffffffff021916908373ffffffffffffffffffffffffffffffffffffffff160217905550808273ffffffffffffffffffffffffffffffffffffffff166117b383610fea565b73ffffffffffffffffffffffffffffffffffffffff167f8c5be1e5ebec7d5bd14f71427d1e84f3dd0314c0f7b2291e5b200ac8c7c3b92560405160405180910390a45050565b60008061180583610fea565b90508073ffffffffffffffffffffffffffffffffffffffff168473ffffffffffffffffffffffffffffffffffffffff161480611847575061184681856115ef565b5b8061188557508373ffffffffffffffffffffffffffffffffffffffff1661186d84610751565b73ffffffffffffffffffffffffffffffffffffffff16145b91505092915050565b8273ffffffffffffffffffffffffffffffffffffffff166118ae82610fea565b73ffffffffffffffffffffffffffffffffffffffff1614611904576040517f08c379a00000000000000000000000000000000000000000000000000000000081526004016118fb90613b0e565b60405180910390fd5b600073ffffffffffffffffffffffffffffffffffffffff168273ffffffffffffffffffffffffffffffffffffffff1603611973576040517f08c379a000000000000000000000000000000000000000000000000000000000815260040161196a90613ba0565b60405180910390fd5b6119808383836001611ed0565b8273ffffffffffffffffffffffffffffffffffffffff166119a082610fea565b73ffffffffffffffffffffffffffffffffffffffff16146119f6576040517f08c379a00000000000000000000000000000000000000000000000000000000081526004016119ed90613b0e565b60405180910390fd5b6004600082815260200190815260200160002060006101000a81549073ffffffffffffffffffffffffffffffffffffffff02191690556001600360008573ffffffffffffffffffffffffffffffffffffffff1673ffffffffffffffffffffffffffffffffffffffff168152602001908152602001600020600082825403925050819055506001600360008473ffffffffffffffffffffffffffffffffffffffff1673ffffffffffffffffffffffffffffffffffffffff16815260200190815260200160002060008282540192505081905550816002600083815260200190815260200160002060006101000a81548173ffffffffffffffffffffffffffffffffffffffff021916908373ffffffffffffffffffffffffffffffffffffffff160217905550808273ffffffffffffffffffffffffffffffffffffffff168473ffffffffffffffffffffffffffffffffffffffff167fddf252ad1be2c89b69c2b068fc378daa952ba7f163c4a11628f55a4df523b3ef60405160405180910390a4611b828383836001611ed6565b505050565b611ba1828260405180602001604052806000815250611edc565b5050565b60006002600083815260200190815260200160002060009054906101000a900473ffffffffffffffffffffffffffffffffffffffff169050919050565b8173ffffffffffffffffffffffffffffffffffffffff168373ffffffffffffffffffffffffffffffffffffffff1603611c50576040517f08c379a0000000000000000000000000000000000000000000000000000000008152600401611c4790613c0c565b60405180910390fd5b80600560008573ffffffffffffffffffffffffffffffffffffffff1673ffffffffffffffffffffffffffffffffffffffff16815260200190815260200160002060008473ffffffffffffffffffffffffffffffffffffffff1673ffffffffffffffffffffffffffffffffffffffff16815260200190815260200160002060006101000a81548160ff0219169083151502179055508173ffffffffffffffffffffffffffffffffffffffff168373ffffffffffffffffffffffffffffffffffffffff167f17307eab39ab6107e8899845ad3d59bd9653f200f220920489ca2b5937696c3183604051611d419190612553565b60405180910390a3505050565b611d5984848461188e565b611d6584848484611f37565b611da4576040517f08c379a0000000000000000000000000000000000000000000000000000000008152600401611d9b90613c9e565b60405180910390fd5b50505050565b606060405180602001604052806000815250905090565b606060006001611dd0846120be565b01905060008167ffffffffffffffff811115611def57611dee6128b2565b5b6040519080825280601f01601f191660200182016040528015611e215781602001600182028036833780820191505090505b509050600082602001820190505b600115611e84578080600190039150507f3031323334353637383961626364656600000000000000000000000000000000600a86061a8153600a8581611e7857611e77613cbe565b5b04945060008503611e2f575b819350505050919050565b60008073ffffffffffffffffffffffffffffffffffffffff16611eb183611ba5565b73ffffffffffffffffffffffffffffffffffffffff1614159050919050565b50505050565b50505050565b611ee68383612211565b611ef36000848484611f37565b611f32576040517f08c379a0000000000000000000000000000000000000000000000000000000008152600401611f2990613c9e565b60405180910390fd5b505050565b6000611f588473ffffffffffffffffffffffffffffffffffffffff1661242e565b156120b1578373ffffffffffffffffffffffffffffffffffffffff1663150b7a02611f81611738565b8786866040518563ffffffff1660e01b8152600401611fa39493929190613d42565b6020604051808303816000875af1925050508015611fdf57506040513d601f19601f82011682018060405250810190611fdc9190613da3565b60015b612061573d806000811461200f576040519150601f19603f3d011682016040523d82523d6000602084013e612014565b606091505b506000815103612059576040517f08c379a000000000000000000000000000000000000000000000000000000000815260040161205090613c9e565b60405180910390fd5b805181602001fd5b63150b7a0260e01b7bffffffffffffffffffffffffffffffffffffffffffffffffffffffff1916817bffffffffffffffffffffffffffffffffffffffffffffffffffffffff1916149150506120b6565b600190505b949350505050565b600080600090507a184f03e93ff9f4daa797ed6e38ed64bf6a1f010000000000000000831061211c577a184f03e93ff9f4daa797ed6e38ed64bf6a1f010000000000000000838161211257612111613cbe565b5b0492506040810190505b6d04ee2d6d415b85acef81000000008310612159576d04ee2d6d415b85acef8100000000838161214f5761214e613cbe565b5b0492506020810190505b662386f26fc10000831061218857662386f26fc10000838161217e5761217d613cbe565b5b0492506010810190505b6305f5e10083106121b1576305f5e10083816121a7576121a6613cbe565b5b0492506008810190505b61271083106121d65761271083816121cc576121cb613cbe565b5b0492506004810190505b606483106121f957606483816121ef576121ee613cbe565b5b0492506002810190505b600a8310612208576001810190505b80915050919050565b600073ffffffffffffffffffffffffffffffffffffffff168273ffffffffffffffffffffffffffffffffffffffff1603612280576040517f08c379a000000000000000000000000000000000000000000000000000000000815260040161227790613e1c565b60405180910390fd5b61228981611e8f565b156122c9576040517f08c379a00000000000000000000000000000000000000000000000000000000081526004016122c090613e88565b60405180910390fd5b6122d7600083836001611ed0565b6122e081611e8f565b15612320576040517f08c379a000000000000000000000000000000000000000000000000000000000815260040161231790613e88565b60405180910390fd5b6001600360008473ffffffffffffffffffffffffffffffffffffffff1673ffffffffffffffffffffffffffffffffffffffff16815260200190815260200160002060008282540192505081905550816002600083815260200190815260200160002060006101000a81548173ffffffffffffffffffffffffffffffffffffffff021916908373ffffffffffffffffffffffffffffffffffffffff160217905550808273ffffffffffffffffffffffffffffffffffffffff16600073ffffffffffffffffffffffffffffffffffffffff167fddf252ad1be2c89b69c2b068fc378daa952ba7f163c4a11628f55a4df523b3ef60405160405180910390a461242a600083836001611ed6565b5050565b6000808273ffffffffffffffffffffffffffffffffffffffff163b119050919050565b60405180610120016040528060008152602001606081526020016000815260200160008152602001600081526020016060815260200160608152602001606081526020016000151581525090565b6000604051905090565b600080fd5b600080fd5b60007fffffffff0000000000000000000000000000000000000000000000000000000082169050919050565b6124e8816124b3565b81146124f357600080fd5b50565b600081359050612505816124df565b92915050565b600060208284031215612521576125206124a9565b5b600061252f848285016124f6565b91505092915050565b60008115159050919050565b61254d81612538565b82525050565b60006020820190506125686000830184612544565b92915050565b600081519050919050565b600082825260208201905092915050565b60005b838110156125a857808201518184015260208101905061258d565b60008484015250505050565b6000601f19601f8301169050919050565b60006125d08261256e565b6125da8185612579565b93506125ea81856020860161258a565b6125f3816125b4565b840191505092915050565b6000602082019050818103600083015261261881846125c5565b905092915050565b6000819050919050565b61263381612620565b811461263e57600080fd5b50565b6000813590506126508161262a565b92915050565b60006020828403121561266c5761266b6124a9565b5b600061267a84828501612641565b91505092915050565b600073ffffffffffffffffffffffffffffffffffffffff82169050919050565b60006126ae82612683565b9050919050565b6126be816126a3565b82525050565b60006020820190506126d960008301846126b5565b92915050565b6126e8816126a3565b81146126f357600080fd5b50565b600081359050612705816126df565b92915050565b60008060408385031215612722576127216124a9565b5b6000612730858286016126f6565b925050602061274185828601612641565b9150509250929050565b600081519050919050565b600082825260208201905092915050565b6000819050602082019050919050565b61278081612620565b82525050565b60006127928383612777565b60208301905092915050565b6000602082019050919050565b60006127b68261274b565b6127c08185612756565b93506127cb83612767565b8060005b838110156127fc5781516127e38882612786565b97506127ee8361279e565b9250506001810190506127cf565b5085935050505092915050565b6000602082019050818103600083015261282381846127ab565b905092915050565b61283481612620565b82525050565b600060208201905061284f600083018461282b565b92915050565b60008060006060848603121561286e5761286d6124a9565b5b600061287c868287016126f6565b935050602061288d868287016126f6565b925050604061289e86828701612641565b9150509250925092565b600080fd5b600080fd5b7f4e487b7100000000000000000000000000000000000000000000000000000000600052604160045260246000fd5b6128ea826125b4565b810181811067ffffffffffffffff82111715612909576129086128b2565b5b80604052505050565b600061291c61249f565b905061292882826128e1565b919050565b600067ffffffffffffffff821115612948576129476128b2565b5b612951826125b4565b9050602081019050919050565b82818337600083830152505050565b600061298061297b8461292d565b612912565b90508281526020810184848401111561299c5761299b6128ad565b5b6129a784828561295e565b509392505050565b600082601f8301126129c4576129c36128a8565b5b81356129d484826020860161296d565b91505092915050565b6129e681612538565b81146129f157600080fd5b50565b600081359050612a03816129dd565b92915050565b600080600080600080600060e0888a031215612a2857612a276124a9565b5b600088013567ffffffffffffffff811115612a4657612a456124ae565b5b612a528a828b016129af565b9750506020612a638a828b01612641565b9650506040612a748a828b01612641565b955050606088013567ffffffffffffffff811115612a9557612a946124ae565b5b612aa18a828b016129af565b945050608088013567ffffffffffffffff811115612ac257612ac16124ae565b5b612ace8a828b016129af565b93505060a088013567ffffffffffffffff811115612aef57612aee6124ae565b5b612afb8a828b016129af565b92505060c0612b0c8a828b016129f4565b91505092959891949750929550565b600067ffffffffffffffff821115612b3657612b356128b2565b5b602082029050919050565b600080fd5b6000612b59612b5484612b1b565b612912565b90508060208402830185811115612b7357612b72612b41565b5b835b81811015612b9c5780612b888882612641565b845260208401935050602081019050612b75565b5050509392505050565b600082601f830112612bbb57612bba6128a8565b5b6004612bc8848285612b46565b91505092915050565b600067ffffffffffffffff821115612bec57612beb6128b2565b5b602082029050919050565b6000612c0a612c0584612bd1565b612912565b90508060208402830185811115612c2457612c23612b41565b5b835b81811015612c4d5780612c398882612641565b845260208401935050602081019050612c26565b5050509392505050565b600082601f830112612c6c57612c6b6128a8565b5b6008612c79848285612bf7565b91505092915050565b600080600080600080600080610240898b031215612ca357612ca26124a9565b5b6000612cb18b828c01612641565b9850506020612cc28b828c01612641565b9750506040612cd38b828c01612641565b9650506060612ce48b828c01612641565b9550506080612cf58b828c01612641565b94505060a0612d068b828c01612641565b93505060c0612d178b828c01612ba6565b925050610140612d298b828c01612c57565b9150509295985092959890939650565b600060208284031215612d4f57612d4e6124a9565b5b6000612d5d848285016126f6565b91505092915050565b600082825260208201905092915050565b6000612d828261256e565b612d8c8185612d66565b9350612d9c81856020860161258a565b612da5816125b4565b840191505092915050565b612db981612538565b82525050565b600061012083016000830151612dd86000860182612777565b5060208301518482036020860152612df08282612d77565b9150506040830151612e056040860182612777565b506060830151612e186060860182612777565b506080830151612e2b6080860182612777565b5060a083015184820360a0860152612e438282612d77565b91505060c083015184820360c0860152612e5d8282612d77565b91505060e083015184820360e0860152612e778282612d77565b915050610100830151612e8e610100860182612db0565b508091505092915050565b60006020820190508181036000830152612eb38184612dbf565b905092915050565b60008060408385031215612ed257612ed16124a9565b5b6000612ee085828601612641565b9250506020612ef1858286016126f6565b9150509250929050565b60008060408385031215612f1257612f116124a9565b5b6000612f20858286016126f6565b9250506020612f31858286016129f4565b9150509250929050565b60008060408385031215612f5257612f516124a9565b5b6000612f6085828601612641565b9250506020612f7185828601612641565b9150509250929050565b600067ffffffffffffffff821115612f9657612f956128b2565b5b612f9f826125b4565b9050602081019050919050565b6000612fbf612fba84612f7b565b612912565b905082815260208101848484011115612fdb57612fda6128ad565b5b612fe684828561295e565b509392505050565b600082601f830112613003576130026128a8565b5b8135613013848260208601612fac565b91505092915050565b60008060008060808587031215613036576130356124a9565b5b6000613044878288016126f6565b9450506020613055878288016126f6565b935050604061306687828801612641565b925050606085013567ffffffffffffffff811115613087576130866124ae565b5b61309387828801612fee565b91505092959194509250565b600080604083850312156130b6576130b56124a9565b5b60006130c4858286016126f6565b92505060206130d5858286016126f6565b9150509250929050565b7f4e487b7100000000000000000000000000000000000000000000000000000000600052602260045260246000fd5b6000600282049050600182168061312657607f821691505b602082108103613139576131386130df565b5b50919050565b7f4552433732313a20617070726f76616c20746f2063757272656e74206f776e6560008201527f7200000000000000000000000000000000000000000000000000000000000000602082015250565b600061319b602183612579565b91506131a68261313f565b604082019050919050565b600060208201905081810360008301526131ca8161318e565b9050919050565b7f4552433732313a20617070726f76652063616c6c6572206973206e6f7420746f60008201527f6b656e206f776e6572206f7220617070726f76656420666f7220616c6c000000602082015250565b600061322d603d83612579565b9150613238826131d1565b604082019050919050565b6000602082019050818103600083015261325c81613220565b9050919050565b7f4552433732313a2063616c6c6572206973206e6f7420746f6b656e206f776e6560008201527f72206f7220617070726f76656400000000000000000000000000000000000000602082015250565b60006132bf602d83612579565b91506132ca82613263565b604082019050919050565b600060208201905081810360008301526132ee816132b2565b9050919050565b600081905092915050565b50565b60006133106000836132f5565b915061331b82613300565b600082019050919050565b600061333182613303565b9150819050919050565b7f4e487b7100000000000000000000000000000000000000000000000000000000600052601160045260246000fd5b600061337582612620565b91507fffffffffffffffffffffffffffffffffffffffffffffffffffffffffffffffff82036133a7576133a661333b565b5b600182019050919050565b60008190508160005260206000209050919050565b60006020601f8301049050919050565b600082821b905092915050565b6000600883026134147fffffffffffffffffffffffffffffffffffffffffffffffffffffffffffffffff826133d7565b61341e86836133d7565b95508019841693508086168417925050509392505050565b6000819050919050565b600061345b61345661345184612620565b613436565b612620565b9050919050565b6000819050919050565b61347583613440565b61348961348182613462565b8484546133e4565b825550505050565b600090565b61349e613491565b6134a981848461346c565b505050565b5b818110156134cd576134c2600082613496565b6001810190506134af565b5050565b601f821115613512576134e3816133b2565b6134ec846133c7565b810160208510156134fb578190505b61350f613507856133c7565b8301826134ae565b50505b505050565b600082821c905092915050565b600061353560001984600802613517565b1980831691505092915050565b600061354e8383613524565b9150826002028217905092915050565b6135678261256e565b67ffffffffffffffff8111156135805761357f6128b2565b5b61358a825461310e565b6135958282856134d1565b600060209050601f8311600181146135c857600084156135b6578287015190505b6135c08582613542565b865550613628565b601f1984166135d6866133b2565b60005b828110156135fe578489015182556001820191506020850194506020810190506135d9565b8683101561361b5784890151613617601f891682613524565b8355505b6001600288020188555050505b505050505050565b600060049050919050565b600081905092915050565b6000819050919050565b6000602082019050919050565b61366681613630565b613670818461363b565b925061367b82613646565b8060005b838110156136ac5781516136938782612786565b965061369e83613650565b92505060018101905061367f565b505050505050565b600060089050919050565b600081905092915050565b6000819050919050565b6000602082019050919050565b6136ea816136b4565b6136f481846136bf565b92506136ff826136ca565b8060005b838110156137305781516137178782612786565b9650613722836136d4565b925050600181019050613703565b505050505050565b60006102008201905061374e600083018961282b565b61375b602083018861282b565b613768604083018761282b565b613775606083018661282b565b613782608083018561365d565b6137906101008301846136e1565b979650505050505050565b6000815190506137aa816129dd565b92915050565b6000602082840312156137c6576137c56124a9565b5b60006137d48482850161379b565b91505092915050565b7f5b416e6f6e41616468616172566f74655d3a2070726f6f662073656e7420697360008201527f206e6f742076616c69642e000000000000000000000000000000000000000000602082015250565b6000613839602b83612579565b9150613844826137dd565b604082019050919050565b600060208201905081810360008301526138688161382c565b9050919050565b7f4e487b7100000000000000000000000000000000000000000000000000000000600052603260045260246000fd5b7f596f7520617265206e6f742031382b0000000000000000000000000000000000600082015250565b60006138d4600f83612579565b91506138df8261389e565b602082019050919050565b60006020820190508181036000830152613903816138c7565b9050919050565b600061391582612620565b915061392083612620565b92508282039050818111156139385761393761333b565b5b92915050565b7f4552433732313a20696e76616c696420746f6b656e2049440000000000000000600082015250565b6000613974601883612579565b915061397f8261393e565b602082019050919050565b600060208201905081810360008301526139a381613967565b9050919050565b7f4552433732313a2061646472657373207a65726f206973206e6f74206120766160008201527f6c6964206f776e65720000000000000000000000000000000000000000000000602082015250565b6000613a06602983612579565b9150613a11826139aa565b604082019050919050565b60006020820190508181036000830152613a35816139f9565b9050919050565b600081905092915050565b6000613a528261256e565b613a5c8185613a3c565b9350613a6c81856020860161258a565b80840191505092915050565b6000613a848285613a47565b9150613a908284613a47565b91508190509392505050565b7f4552433732313a207472616e736665722066726f6d20696e636f72726563742060008201527f6f776e6572000000000000000000000000000000000000000000000000000000602082015250565b6000613af8602583612579565b9150613b0382613a9c565b604082019050919050565b60006020820190508181036000830152613b2781613aeb565b9050919050565b7f4552433732313a207472616e7366657220746f20746865207a65726f2061646460008201527f7265737300000000000000000000000000000000000000000000000000000000602082015250565b6000613b8a602483612579565b9150613b9582613b2e565b604082019050919050565b60006020820190508181036000830152613bb981613b7d565b9050919050565b7f4552433732313a20617070726f766520746f2063616c6c657200000000000000600082015250565b6000613bf6601983612579565b9150613c0182613bc0565b602082019050919050565b60006020820190508181036000830152613c2581613be9565b9050919050565b7f4552433732313a207472616e7366657220746f206e6f6e20455243373231526560008201527f63656976657220696d706c656d656e7465720000000000000000000000000000602082015250565b6000613c88603283612579565b9150613c9382613c2c565b604082019050919050565b60006020820190508181036000830152613cb781613c7b565b9050919050565b7f4e487b7100000000000000000000000000000000000000000000000000000000600052601260045260246000fd5b600081519050919050565b600082825260208201905092915050565b6000613d1482613ced565b613d1e8185613cf8565b9350613d2e81856020860161258a565b613d37816125b4565b840191505092915050565b6000608082019050613d5760008301876126b5565b613d6460208301866126b5565b613d71604083018561282b565b8181036060830152613d838184613d09565b905095945050505050565b600081519050613d9d816124df565b92915050565b600060208284031215613db957613db86124a9565b5b6000613dc784828501613d8e565b91505092915050565b7f4552433732313a206d696e7420746f20746865207a65726f2061646472657373600082015250565b6000613e06602083612579565b9150613e1182613dd0565b602082019050919050565b60006020820190508181036000830152613e3581613df9565b9050919050565b7f4552433732313a20746f6b656e20616c7265616479206d696e74656400000000600082015250565b6000613e72601c83612579565b9150613e7d82613e3c565b602082019050919050565b60006020820190508181036000830152613ea181613e65565b905091905056fea2646970667358221220bdfc02ec0c373e5d269b76b99c44c3dac74ca14590c6c42ba41295bbf2cde4a964736f6c63430008130033",
  "linkReferences": {},
  "deployedLinkReferences": {}
}